{
    "contractName": "Mytoken",
    "abi": [
        {
            "inputs": [],
            "stateMutability": "nonpayable",
            "type": "constructor"
        },
        {
            "anonymous": false,
            "inputs": [
                {
                    "indexed": true,
                    "internalType": "address",
                    "name": "owner",
                    "type": "address"
                },
                {
                    "indexed": true,
                    "internalType": "address",
                    "name": "approved",
                    "type": "address"
                },
                {
                    "indexed": true,
                    "internalType": "uint256",
                    "name": "tokenId",
                    "type": "uint256"
                }
            ],
            "name": "Approval",
            "type": "event"
        },
        {
            "anonymous": false,
            "inputs": [
                {
                    "indexed": true,
                    "internalType": "address",
                    "name": "owner",
                    "type": "address"
                },
                {
                    "indexed": true,
                    "internalType": "address",
                    "name": "operator",
                    "type": "address"
                },
                {
                    "indexed": false,
                    "internalType": "bool",
                    "name": "approved",
                    "type": "bool"
                }
            ],
            "name": "ApprovalForAll",
            "type": "event"
        },
        {
            "anonymous": false,
            "inputs": [
                {
                    "indexed": true,
                    "internalType": "address",
                    "name": "previousOwner",
                    "type": "address"
                },
                {
                    "indexed": true,
                    "internalType": "address",
                    "name": "newOwner",
                    "type": "address"
                }
            ],
            "name": "OwnershipTransferred",
            "type": "event"
        },
        {
            "anonymous": false,
            "inputs": [
                {
                    "indexed": true,
                    "internalType": "address",
                    "name": "from",
                    "type": "address"
                },
                {
                    "indexed": true,
                    "internalType": "address",
                    "name": "to",
                    "type": "address"
                },
                {
                    "indexed": true,
                    "internalType": "uint256",
                    "name": "tokenId",
                    "type": "uint256"
                }
            ],
            "name": "Transfer",
            "type": "event"
        },
        {
            "anonymous": false,
            "inputs": [
                {
                    "indexed": false,
                    "internalType": "address",
                    "name": "owner",
                    "type": "address"
                },
                {
                    "indexed": false,
                    "internalType": "address",
                    "name": "seller",
                    "type": "address"
                },
                {
                    "indexed": false,
                    "internalType": "uint256",
                    "name": "tokenId",
                    "type": "uint256"
                }
            ],
            "name": "mintNft",
            "type": "event"
        },
        {
            "inputs": [
                {
                    "internalType": "address",
                    "name": "to",
                    "type": "address"
                },
                {
                    "internalType": "uint256",
                    "name": "tokenId",
                    "type": "uint256"
                }
            ],
            "name": "approve",
            "outputs": [],
            "stateMutability": "nonpayable",
            "type": "function"
        },
        {
            "inputs": [
                {
                    "internalType": "address",
                    "name": "owner",
                    "type": "address"
                }
            ],
            "name": "balanceOf",
            "outputs": [
                {
                    "internalType": "uint256",
                    "name": "",
                    "type": "uint256"
                }
            ],
            "stateMutability": "view",
            "type": "function"
        },
        {
            "inputs": [
                {
                    "internalType": "address",
                    "name": "buyer",
                    "type": "address"
                },
                {
                    "internalType": "uint256",
                    "name": "tokenId",
                    "type": "uint256"
                },
                {
                    "internalType": "uint256",
                    "name": "price",
                    "type": "uint256"
                },
                {
                    "internalType": "string",
                    "name": "uri",
                    "type": "string"
                },
                {
                    "internalType": "bytes",
                    "name": "signature",
                    "type": "bytes"
                }
            ],
            "name": "buyToken",
            "outputs": [
                {
                    "internalType": "uint256",
                    "name": "",
                    "type": "uint256"
                }
            ],
            "stateMutability": "payable",
            "type": "function"
        },
        {
            "inputs": [
                {
                    "internalType": "uint256",
                    "name": "tokenId",
                    "type": "uint256"
                },
                {
                    "internalType": "bytes",
                    "name": "signature",
                    "type": "bytes"
                },
                {
                    "internalType": "string",
                    "name": "tokenUri",
                    "type": "string"
                }
            ],
            "name": "check",
            "outputs": [
                {
                    "internalType": "address",
                    "name": "",
                    "type": "address"
                }
            ],
            "stateMutability": "view",
            "type": "function"
        },
        {
            "inputs": [
                {
                    "internalType": "uint256",
                    "name": "tokenId",
                    "type": "uint256"
                }
            ],
            "name": "getApproved",
            "outputs": [
                {
                    "internalType": "address",
                    "name": "",
                    "type": "address"
                }
            ],
            "stateMutability": "view",
            "type": "function"
        },
        {
            "inputs": [
                {
                    "internalType": "address",
                    "name": "owner",
                    "type": "address"
                },
                {
                    "internalType": "address",
                    "name": "operator",
                    "type": "address"
                }
            ],
            "name": "isApprovedForAll",
            "outputs": [
                {
                    "internalType": "bool",
                    "name": "",
                    "type": "bool"
                }
            ],
            "stateMutability": "view",
            "type": "function"
        },
        {
            "inputs": [],
            "name": "name",
            "outputs": [
                {
                    "internalType": "string",
                    "name": "",
                    "type": "string"
                }
            ],
            "stateMutability": "view",
            "type": "function"
        },
        {
            "inputs": [],
            "name": "owner",
            "outputs": [
                {
                    "internalType": "address",
                    "name": "",
                    "type": "address"
                }
            ],
            "stateMutability": "view",
            "type": "function"
        },
        {
            "inputs": [
                {
                    "internalType": "uint256",
                    "name": "tokenId",
                    "type": "uint256"
                }
            ],
            "name": "ownerOf",
            "outputs": [
                {
                    "internalType": "address",
                    "name": "",
                    "type": "address"
                }
            ],
            "stateMutability": "view",
            "type": "function"
        },
        {
            "inputs": [],
            "name": "renounceOwnership",
            "outputs": [],
            "stateMutability": "nonpayable",
            "type": "function"
        },
        {
            "inputs": [
                {
                    "internalType": "address",
                    "name": "from",
                    "type": "address"
                },
                {
                    "internalType": "address",
                    "name": "to",
                    "type": "address"
                },
                {
                    "internalType": "uint256",
                    "name": "tokenId",
                    "type": "uint256"
                }
            ],
            "name": "safeTransferFrom",
            "outputs": [],
            "stateMutability": "nonpayable",
            "type": "function"
        },
        {
            "inputs": [
                {
                    "internalType": "address",
                    "name": "from",
                    "type": "address"
                },
                {
                    "internalType": "address",
                    "name": "to",
                    "type": "address"
                },
                {
                    "internalType": "uint256",
                    "name": "tokenId",
                    "type": "uint256"
                },
                {
                    "internalType": "bytes",
                    "name": "_data",
                    "type": "bytes"
                }
            ],
            "name": "safeTransferFrom",
            "outputs": [],
            "stateMutability": "nonpayable",
            "type": "function"
        },
        {
            "inputs": [
                {
                    "internalType": "address",
                    "name": "operator",
                    "type": "address"
                },
                {
                    "internalType": "bool",
                    "name": "approved",
                    "type": "bool"
                }
            ],
            "name": "setApprovalForAll",
            "outputs": [],
            "stateMutability": "nonpayable",
            "type": "function"
        },
        {
            "inputs": [
                {
                    "internalType": "string",
                    "name": "baseURI_",
                    "type": "string"
                }
            ],
            "name": "setBaseURI",
            "outputs": [],
            "stateMutability": "nonpayable",
            "type": "function"
        },
        {
            "inputs": [
                {
                    "internalType": "bytes4",
                    "name": "interfaceId",
                    "type": "bytes4"
                }
            ],
            "name": "supportsInterface",
            "outputs": [
                {
                    "internalType": "bool",
                    "name": "",
                    "type": "bool"
                }
            ],
            "stateMutability": "view",
            "type": "function"
        },
        {
            "inputs": [],
            "name": "symbol",
            "outputs": [
                {
                    "internalType": "string",
                    "name": "",
                    "type": "string"
                }
            ],
            "stateMutability": "view",
            "type": "function"
        },
        {
            "inputs": [
                {
                    "internalType": "uint256",
                    "name": "tokenId",
                    "type": "uint256"
                }
            ],
            "name": "tokenURI",
            "outputs": [
                {
                    "internalType": "string",
                    "name": "",
                    "type": "string"
                }
            ],
            "stateMutability": "view",
            "type": "function"
        },
        {
            "inputs": [
                {
                    "internalType": "address",
                    "name": "from",
                    "type": "address"
                },
                {
                    "internalType": "address",
                    "name": "to",
                    "type": "address"
                },
                {
                    "internalType": "uint256",
                    "name": "tokenId",
                    "type": "uint256"
                }
            ],
            "name": "transferFrom",
            "outputs": [],
            "stateMutability": "nonpayable",
            "type": "function"
        },
        {
            "inputs": [
                {
                    "internalType": "address",
                    "name": "newOwner",
                    "type": "address"
                }
            ],
            "name": "transferOwnership",
            "outputs": [],
            "stateMutability": "nonpayable",
            "type": "function"
        }
    ],
    "bytecode": "60806040523480156200001157600080fd5b50604080518082018252600781526626bcba37b5b2b760c91b6020808301918252835180850190945260038452624d544b60e81b9084015281519192916200005c91600091620000eb565b50805162000072906001906020840190620000eb565b5050506200008f620000896200009560201b60201c565b62000099565b620001ce565b3390565b600680546001600160a01b038381166001600160a01b0319831681179093556040519116919082907f8be0079c531659141344cd1fd0a4f28419497f9722a3daafe3b4186f6b6457e090600090a35050565b828054620000f99062000191565b90600052602060002090601f0160209004810192826200011d576000855562000168565b82601f106200013857805160ff191683800117855562000168565b8280016001018555821562000168579182015b82811115620001685782518255916020019190600101906200014b565b50620001769291506200017a565b5090565b5b808211156200017657600081556001016200017b565b600181811c90821680620001a657607f821691505b60208210811415620001c857634e487b7160e01b600052602260045260246000fd5b50919050565b611f3280620001de6000396000f3fe6080604052600436106101145760003560e01c80636544aa29116100a0578063a22cb46511610064578063a22cb465146102f3578063b88d4fde14610313578063c87b56dd14610333578063e985e9c514610353578063f2fde38b1461039c57600080fd5b80636544aa291461026a57806370a082311461028b578063715018a6146102ab5780638da5cb5b146102c057806395d89b41146102de57600080fd5b8063095ea7b3116100e7578063095ea7b3146101c857806323b872dd146101ea57806342842e0e1461020a57806355f804b31461022a5780636352211e1461024a57600080fd5b806301ffc9a71461011957806305c63c971461014e57806306fdde0314610186578063081812fc146101a8575b600080fd5b34801561012557600080fd5b50610139610134366004611895565b6103bc565b60405190151581526020015b60405180910390f35b34801561015a57600080fd5b5061016e61016936600461195c565b61040e565b6040516001600160a01b039091168152602001610145565b34801561019257600080fd5b5061019b610423565b6040516101459190611a21565b3480156101b457600080fd5b5061016e6101c3366004611a34565b6104b5565b3480156101d457600080fd5b506101e86101e3366004611a69565b61054f565b005b3480156101f657600080fd5b506101e8610205366004611a93565b610665565b34801561021657600080fd5b506101e8610225366004611a93565b610696565b34801561023657600080fd5b506101e8610245366004611acf565b6106b1565b34801561025657600080fd5b5061016e610265366004611a34565b6106f2565b61027d610278366004611b04565b610769565b604051908152602001610145565b34801561029757600080fd5b5061027d6102a6366004611b8c565b610876565b3480156102b757600080fd5b506101e86108fd565b3480156102cc57600080fd5b506006546001600160a01b031661016e565b3480156102ea57600080fd5b5061019b610933565b3480156102ff57600080fd5b506101e861030e366004611ba7565b610942565b34801561031f57600080fd5b506101e861032e366004611be3565b61094d565b34801561033f57600080fd5b5061019b61034e366004611a34565b610985565b34801561035f57600080fd5b5061013961036e366004611c4b565b6001600160a01b03918216600090815260056020908152604080832093909416825291909152205460ff1690565b3480156103a857600080fd5b506101e86103b7366004611b8c565b610b14565b60006001600160e01b031982166380ac58cd60e01b14806103ed57506001600160e01b03198216635b5e139f60e01b145b8061040857506301ffc9a760e01b6001600160e01b03198316145b92915050565b600061041b838584610baf565b949350505050565b60606000805461043290611c7e565b80601f016020809104026020016040519081016040528092919081815260200182805461045e90611c7e565b80156104ab5780601f10610480576101008083540402835291602001916104ab565b820191906000526020600020905b81548152906001019060200180831161048e57829003601f168201915b5050505050905090565b6000818152600260205260408120546001600160a01b03166105335760405162461bcd60e51b815260206004820152602c60248201527f4552433732313a20617070726f76656420717565727920666f72206e6f6e657860448201526b34b9ba32b73a103a37b5b2b760a11b60648201526084015b60405180910390fd5b506000908152600460205260409020546001600160a01b031690565b600061055a826106f2565b9050806001600160a01b0316836001600160a01b031614156105c85760405162461bcd60e51b815260206004820152602160248201527f4552433732313a20617070726f76616c20746f2063757272656e74206f776e656044820152603960f91b606482015260840161052a565b336001600160a01b03821614806105e457506105e4813361036e565b6106565760405162461bcd60e51b815260206004820152603860248201527f4552433732313a20617070726f76652063616c6c6572206973206e6f74206f7760448201527f6e6572206e6f7220617070726f76656420666f7220616c6c0000000000000000606482015260840161052a565b6106608383610c4a565b505050565b61066f3382610cb8565b61068b5760405162461bcd60e51b815260040161052a90611cb9565b610660838383610dab565b6106608383836040518060200160405280600081525061094d565b6006546001600160a01b031633146106db5760405162461bcd60e51b815260040161052a90611d0a565b80516106ee9060089060208401906117e6565b5050565b6000818152600260205260408120546001600160a01b0316806104085760405162461bcd60e51b815260206004820152602960248201527f4552433732313a206f776e657220717565727920666f72206e6f6e657869737460448201526832b73a103a37b5b2b760b91b606482015260840161052a565b6000833410156107bb5760405162461bcd60e51b815260206004820152601c60248201527f496e73756666696369656e742066756e647320746f2072656465656d00000000604482015260640161052a565b60006107c886848661040e565b90506107d48187610f47565b6107de8685611089565b6107e9818888610dab565b6040516001600160a01b0382169086156108fc029087906000818181858888f1935050505015801561081f573d6000803e3d6000fd5b50604080516001600160a01b03808a168252831660208201529081018690527fbe51751b7da252e6a0c199ce108f6ca2a82a02a490bc6023c2d691f8b211ad689060600160405180910390a1509395945050505050565b60006001600160a01b0382166108e15760405162461bcd60e51b815260206004820152602a60248201527f4552433732313a2062616c616e636520717565727920666f7220746865207a65604482015269726f206164647265737360b01b606482015260840161052a565b506001600160a01b031660009081526003602052604090205490565b6006546001600160a01b031633146109275760405162461bcd60e51b815260040161052a90611d0a565b6109316000611121565b565b60606001805461043290611c7e565b6106ee338383611173565b6109573383610cb8565b6109735760405162461bcd60e51b815260040161052a90611cb9565b61097f84848484611242565b50505050565b6000818152600260205260409020546060906001600160a01b0316610a045760405162461bcd60e51b815260206004820152602f60248201527f4552433732314d657461646174613a2055524920717565727920666f72206e6f60448201526e3732bc34b9ba32b73a103a37b5b2b760891b606482015260840161052a565b60008281526007602052604081208054610a1d90611c7e565b80601f0160208091040260200160405190810160405280929190818152602001828054610a4990611c7e565b8015610a965780601f10610a6b57610100808354040283529160200191610a96565b820191906000526020600020905b815481529060010190602001808311610a7957829003601f168201915b505050505090506000610ab460408051602081019091526000815290565b9050805160001415610ac7575092915050565b815115610af9578082604051602001610ae1929190611d3f565b60405160208183030381529060405292505050919050565b80610b0385611275565b604051602001610ae1929190611d3f565b6006546001600160a01b03163314610b3e5760405162461bcd60e51b815260040161052a90611d0a565b6001600160a01b038116610ba35760405162461bcd60e51b815260206004820152602660248201527f4f776e61626c653a206e6577206f776e657220697320746865207a65726f206160448201526564647265737360d01b606482015260840161052a565b610bac81611121565b50565b6000808284604051602001610bc5929190611d6e565b6040516020818303038152906040528051906020012090506000610c4086610c3a846040517f19457468657265756d205369676e6564204d6573736167653a0a3332000000006020820152603c8101829052600090605c01604051602081830303815290604052805190602001209050919050565b90611373565b9695505050505050565b600081815260046020526040902080546001600160a01b0319166001600160a01b0384169081179091558190610c7f826106f2565b6001600160a01b03167f8c5be1e5ebec7d5bd14f71427d1e84f3dd0314c0f7b2291e5b200ac8c7c3b92560405160405180910390a45050565b6000818152600260205260408120546001600160a01b0316610d315760405162461bcd60e51b815260206004820152602c60248201527f4552433732313a206f70657261746f7220717565727920666f72206e6f6e657860448201526b34b9ba32b73a103a37b5b2b760a11b606482015260840161052a565b6000610d3c836106f2565b9050806001600160a01b0316846001600160a01b03161480610d775750836001600160a01b0316610d6c846104b5565b6001600160a01b0316145b8061041b57506001600160a01b0380821660009081526005602090815260408083209388168352929052205460ff1661041b565b826001600160a01b0316610dbe826106f2565b6001600160a01b031614610e225760405162461bcd60e51b815260206004820152602560248201527f4552433732313a207472616e736665722066726f6d20696e636f72726563742060448201526437bbb732b960d91b606482015260840161052a565b6001600160a01b038216610e845760405162461bcd60e51b8152602060048201526024808201527f4552433732313a207472616e7366657220746f20746865207a65726f206164646044820152637265737360e01b606482015260840161052a565b610e8f600082610c4a565b6001600160a01b0383166000908152600360205260408120805460019290610eb8908490611da6565b90915550506001600160a01b0382166000908152600360205260408120805460019290610ee6908490611dbd565b909155505060008181526002602052604080822080546001600160a01b0319166001600160a01b0386811691821790925591518493918716917fddf252ad1be2c89b69c2b068fc378daa952ba7f163c4a11628f55a4df523b3ef91a4505050565b6001600160a01b038216610f9d5760405162461bcd60e51b815260206004820181905260248201527f4552433732313a206d696e7420746f20746865207a65726f2061646472657373604482015260640161052a565b6000818152600260205260409020546001600160a01b0316156110025760405162461bcd60e51b815260206004820152601c60248201527f4552433732313a20746f6b656e20616c7265616479206d696e74656400000000604482015260640161052a565b6001600160a01b038216600090815260036020526040812080546001929061102b908490611dbd565b909155505060008181526002602052604080822080546001600160a01b0319166001600160a01b03861690811790915590518392907fddf252ad1be2c89b69c2b068fc378daa952ba7f163c4a11628f55a4df523b3ef908290a45050565b6000828152600260205260409020546001600160a01b03166111025760405162461bcd60e51b815260206004820152602c60248201527f4552433732314d657461646174613a2055524920736574206f66206e6f6e657860448201526b34b9ba32b73a103a37b5b2b760a11b606482015260840161052a565b60008281526007602090815260409091208251610660928401906117e6565b600680546001600160a01b038381166001600160a01b0319831681179093556040519116919082907f8be0079c531659141344cd1fd0a4f28419497f9722a3daafe3b4186f6b6457e090600090a35050565b816001600160a01b0316836001600160a01b031614156111d55760405162461bcd60e51b815260206004820152601960248201527f4552433732313a20617070726f766520746f2063616c6c657200000000000000604482015260640161052a565b6001600160a01b03838116600081815260056020908152604080832094871680845294825291829020805460ff191686151590811790915591519182527f17307eab39ab6107e8899845ad3d59bd9653f200f220920489ca2b5937696c31910160405180910390a3505050565b61124d848484610dab565b61125984848484611397565b61097f5760405162461bcd60e51b815260040161052a90611dd5565b6060816112995750506040805180820190915260018152600360fc1b602082015290565b8160005b81156112c357806112ad81611e27565b91506112bc9050600a83611e58565b915061129d565b60008167ffffffffffffffff8111156112de576112de6118b9565b6040519080825280601f01601f191660200182016040528015611308576020820181803683370190505b5090505b841561041b5761131d600183611da6565b915061132a600a86611e6c565b611335906030611dbd565b60f81b81838151811061134a5761134a611e80565b60200101906001600160f81b031916908160001a90535061136c600a86611e58565b945061130c565b60008060006113828585611495565b9150915061138f81611505565b509392505050565b60006001600160a01b0384163b1561148a57604051630a85bd0160e11b81526001600160a01b0385169063150b7a02906113db903390899088908890600401611e96565b6020604051808303816000875af1925050508015611416575060408051601f3d908101601f1916820190925261141391810190611ec9565b60015b611470573d808015611444576040519150601f19603f3d011682016040523d82523d6000602084013e611449565b606091505b5080516114685760405162461bcd60e51b815260040161052a90611dd5565b805181602001fd5b6001600160e01b031916630a85bd0160e11b14905061041b565b506001949350505050565b6000808251604114156114cc5760208301516040840151606085015160001a6114c0878285856116c0565b945094505050506114fe565b8251604014156114f657602083015160408401516114eb8683836117ad565b9350935050506114fe565b506000905060025b9250929050565b600081600481111561151957611519611ee6565b14156115225750565b600181600481111561153657611536611ee6565b14156115845760405162461bcd60e51b815260206004820152601860248201527f45434453413a20696e76616c6964207369676e61747572650000000000000000604482015260640161052a565b600281600481111561159857611598611ee6565b14156115e65760405162461bcd60e51b815260206004820152601f60248201527f45434453413a20696e76616c6964207369676e6174757265206c656e67746800604482015260640161052a565b60038160048111156115fa576115fa611ee6565b14156116535760405162461bcd60e51b815260206004820152602260248201527f45434453413a20696e76616c6964207369676e6174757265202773272076616c604482015261756560f01b606482015260840161052a565b600481600481111561166757611667611ee6565b1415610bac5760405162461bcd60e51b815260206004820152602260248201527f45434453413a20696e76616c6964207369676e6174757265202776272076616c604482015261756560f01b606482015260840161052a565b6000807f7fffffffffffffffffffffffffffffff5d576e7357a4501ddfe92f46681b20a08311156116f757506000905060036117a4565b8460ff16601b1415801561170f57508460ff16601c14155b1561172057506000905060046117a4565b6040805160008082526020820180845289905260ff881692820192909252606081018690526080810185905260019060a0016020604051602081039080840390855afa158015611774573d6000803e3d6000fd5b5050604051601f1901519150506001600160a01b03811661179d576000600192509250506117a4565b9150600090505b94509492505050565b6000806001600160ff1b038316816117ca60ff86901c601b611dbd565b90506117d8878288856116c0565b935093505050935093915050565b8280546117f290611c7e565b90600052602060002090601f016020900481019282611814576000855561185a565b82601f1061182d57805160ff191683800117855561185a565b8280016001018555821561185a579182015b8281111561185a57825182559160200191906001019061183f565b5061186692915061186a565b5090565b5b80821115611866576000815560010161186b565b6001600160e01b031981168114610bac57600080fd5b6000602082840312156118a757600080fd5b81356118b28161187f565b9392505050565b634e487b7160e01b600052604160045260246000fd5b600082601f8301126118e057600080fd5b813567ffffffffffffffff808211156118fb576118fb6118b9565b604051601f8301601f19908116603f01168101908282118183101715611923576119236118b9565b8160405283815286602085880101111561193c57600080fd5b836020870160208301376000602085830101528094505050505092915050565b60008060006060848603121561197157600080fd5b83359250602084013567ffffffffffffffff8082111561199057600080fd5b61199c878388016118cf565b935060408601359150808211156119b257600080fd5b506119bf868287016118cf565b9150509250925092565b60005b838110156119e45781810151838201526020016119cc565b8381111561097f5750506000910152565b60008151808452611a0d8160208601602086016119c9565b601f01601f19169290920160200192915050565b6020815260006118b260208301846119f5565b600060208284031215611a4657600080fd5b5035919050565b80356001600160a01b0381168114611a6457600080fd5b919050565b60008060408385031215611a7c57600080fd5b611a8583611a4d565b946020939093013593505050565b600080600060608486031215611aa857600080fd5b611ab184611a4d565b9250611abf60208501611a4d565b9150604084013590509250925092565b600060208284031215611ae157600080fd5b813567ffffffffffffffff811115611af857600080fd5b61041b848285016118cf565b600080600080600060a08688031215611b1c57600080fd5b611b2586611a4d565b94506020860135935060408601359250606086013567ffffffffffffffff80821115611b5057600080fd5b611b5c89838a016118cf565b93506080880135915080821115611b7257600080fd5b50611b7f888289016118cf565b9150509295509295909350565b600060208284031215611b9e57600080fd5b6118b282611a4d565b60008060408385031215611bba57600080fd5b611bc383611a4d565b915060208301358015158114611bd857600080fd5b809150509250929050565b60008060008060808587031215611bf957600080fd5b611c0285611a4d565b9350611c1060208601611a4d565b925060408501359150606085013567ffffffffffffffff811115611c3357600080fd5b611c3f878288016118cf565b91505092959194509250565b60008060408385031215611c5e57600080fd5b611c6783611a4d565b9150611c7560208401611a4d565b90509250929050565b600181811c90821680611c9257607f821691505b60208210811415611cb357634e487b7160e01b600052602260045260246000fd5b50919050565b60208082526031908201527f4552433732313a207472616e736665722063616c6c6572206973206e6f74206f6040820152701ddb995c881b9bdc88185c1c1c9bdd9959607a1b606082015260800190565b6020808252818101527f4f776e61626c653a2063616c6c6572206973206e6f7420746865206f776e6572604082015260600190565b60008351611d518184602088016119c9565b835190830190611d658183602088016119c9565b01949350505050565b60008351611d808184602088016119c9565b9190910191825250602001919050565b634e487b7160e01b600052601160045260246000fd5b600082821015611db857611db8611d90565b500390565b60008219821115611dd057611dd0611d90565b500190565b60208082526032908201527f4552433732313a207472616e7366657220746f206e6f6e20455243373231526560408201527131b2b4bb32b91034b6b83632b6b2b73a32b960711b606082015260800190565b6000600019821415611e3b57611e3b611d90565b5060010190565b634e487b7160e01b600052601260045260246000fd5b600082611e6757611e67611e42565b500490565b600082611e7b57611e7b611e42565b500690565b634e487b7160e01b600052603260045260246000fd5b6001600160a01b0385811682528416602082015260408101839052608060608201819052600090610c40908301846119f5565b600060208284031215611edb57600080fd5b81516118b28161187f565b634e487b7160e01b600052602160045260246000fdfea26469706673582212202e678925da6db409d1be4f1eeb6a1d4543b920b9465db626d6ae9eca7f58ec4064736f6c634300080b0033",
    "sourcePath": "/home/akhilesh/Desktop/test/contracts/Mytoken.sol",
    "compiler": {
        "name": "solc",
        "version": "0.8.11+commit.d7f03943"
    },
    "functionHashes": {
        "approve(address,uint256)": "095ea7b3",
        "balanceOf(address)": "70a08231",
        "buyToken(address,uint256,uint256,string,bytes)": "6544aa29",
        "check(uint256,bytes,string)": "05c63c97",
        "getApproved(uint256)": "081812fc",
        "isApprovedForAll(address,address)": "e985e9c5",
        "name()": "06fdde03",
        "owner()": "8da5cb5b",
        "ownerOf(uint256)": "6352211e",
        "renounceOwnership()": "715018a6",
        "safeTransferFrom(address,address,uint256)": "42842e0e",
        "safeTransferFrom(address,address,uint256,bytes)": "b88d4fde",
        "setApprovalForAll(address,bool)": "a22cb465",
        "setBaseURI(string)": "55f804b3",
        "supportsInterface(bytes4)": "01ffc9a7",
        "symbol()": "95d89b41",
        "tokenURI(uint256)": "c87b56dd",
        "transferFrom(address,address,uint256)": "23b872dd",
        "transferOwnership(address)": "f2fde38b"
    },
    "gasEstimates": {
        "creation": {
            "codeDepositCost": "1597200",
            "executionCost": "infinite",
            "totalCost": "infinite"
        },
        "external": {
            "approve(address,uint256)": "infinite",
            "balanceOf(address)": "2634",
            "buyToken(address,uint256,uint256,string,bytes)": "infinite",
            "check(uint256,bytes,string)": "infinite",
            "getApproved(uint256)": "4782",
            "isApprovedForAll(address,address)": "infinite",
            "name()": "infinite",
            "owner()": "2420",
            "ownerOf(uint256)": "2667",
            "renounceOwnership()": "28184",
            "safeTransferFrom(address,address,uint256)": "infinite",
            "safeTransferFrom(address,address,uint256,bytes)": "infinite",
            "setApprovalForAll(address,bool)": "26708",
            "setBaseURI(string)": "infinite",
            "supportsInterface(bytes4)": "534",
            "symbol()": "infinite",
            "tokenURI(uint256)": "infinite",
            "transferFrom(address,address,uint256)": "infinite",
            "transferOwnership(address)": "28422"
        },
        "internal": {
            "_getsignerAddress(bytes memory,uint256,string memory)": "infinite",
            "_setTokenURI(uint256,string memory)": "infinite"
        }
    }
}