{
  "contractName": "Mytoken",
  "abi": [
    {
      "inputs": [],
      "stateMutability": "nonpayable",
      "type": "constructor"
    },
    {
      "anonymous": false,
      "inputs": [
        {
          "indexed": true,
          "internalType": "address",
          "name": "owner",
          "type": "address"
        },
        {
          "indexed": true,
          "internalType": "address",
          "name": "approved",
          "type": "address"
        },
        {
          "indexed": true,
          "internalType": "uint256",
          "name": "tokenId",
          "type": "uint256"
        }
      ],
      "name": "Approval",
      "type": "event"
    },
    {
      "anonymous": false,
      "inputs": [
        {
          "indexed": true,
          "internalType": "address",
          "name": "owner",
          "type": "address"
        },
        {
          "indexed": true,
          "internalType": "address",
          "name": "operator",
          "type": "address"
        },
        {
          "indexed": false,
          "internalType": "bool",
          "name": "approved",
          "type": "bool"
        }
      ],
      "name": "ApprovalForAll",
      "type": "event"
    },
    {
      "anonymous": false,
      "inputs": [
        {
          "indexed": true,
          "internalType": "address",
          "name": "previousOwner",
          "type": "address"
        },
        {
          "indexed": true,
          "internalType": "address",
          "name": "newOwner",
          "type": "address"
        }
      ],
      "name": "OwnershipTransferred",
      "type": "event"
    },
    {
      "anonymous": false,
      "inputs": [
        {
          "indexed": true,
          "internalType": "address",
          "name": "from",
          "type": "address"
        },
        {
          "indexed": true,
          "internalType": "address",
          "name": "to",
          "type": "address"
        },
        {
          "indexed": true,
          "internalType": "uint256",
          "name": "tokenId",
          "type": "uint256"
        }
      ],
      "name": "Transfer",
      "type": "event"
    },
    {
      "anonymous": false,
      "inputs": [
        {
          "indexed": false,
          "internalType": "address",
          "name": "owner",
          "type": "address"
        },
        {
          "indexed": false,
          "internalType": "address",
          "name": "seller",
          "type": "address"
        },
        {
          "indexed": false,
          "internalType": "uint256",
          "name": "tokenId",
          "type": "uint256"
        }
      ],
      "name": "transferNft",
      "type": "event"
    },
    {
      "inputs": [
        {
          "internalType": "address",
          "name": "to",
          "type": "address"
        },
        {
          "internalType": "uint256",
          "name": "tokenId",
          "type": "uint256"
        }
      ],
      "name": "approve",
      "outputs": [],
      "stateMutability": "nonpayable",
      "type": "function"
    },
    {
      "inputs": [
        {
          "internalType": "address",
          "name": "owner",
          "type": "address"
        }
      ],
      "name": "balanceOf",
      "outputs": [
        {
          "internalType": "uint256",
          "name": "",
          "type": "uint256"
        }
      ],
      "stateMutability": "view",
      "type": "function",
      "constant": true
    },
    {
      "inputs": [
        {
          "internalType": "uint256",
          "name": "tokenId",
          "type": "uint256"
        }
      ],
      "name": "getApproved",
      "outputs": [
        {
          "internalType": "address",
          "name": "",
          "type": "address"
        }
      ],
      "stateMutability": "view",
      "type": "function",
      "constant": true
    },
    {
      "inputs": [
        {
          "internalType": "address",
          "name": "owner",
          "type": "address"
        },
        {
          "internalType": "address",
          "name": "operator",
          "type": "address"
        }
      ],
      "name": "isApprovedForAll",
      "outputs": [
        {
          "internalType": "bool",
          "name": "",
          "type": "bool"
        }
      ],
      "stateMutability": "view",
      "type": "function",
      "constant": true
    },
    {
      "inputs": [],
      "name": "name",
      "outputs": [
        {
          "internalType": "string",
          "name": "",
          "type": "string"
        }
      ],
      "stateMutability": "view",
      "type": "function",
      "constant": true
    },
    {
      "inputs": [],
      "name": "owner",
      "outputs": [
        {
          "internalType": "address",
          "name": "",
          "type": "address"
        }
      ],
      "stateMutability": "view",
      "type": "function",
      "constant": true
    },
    {
      "inputs": [
        {
          "internalType": "uint256",
          "name": "tokenId",
          "type": "uint256"
        }
      ],
      "name": "ownerOf",
      "outputs": [
        {
          "internalType": "address",
          "name": "",
          "type": "address"
        }
      ],
      "stateMutability": "view",
      "type": "function",
      "constant": true
    },
    {
      "inputs": [],
      "name": "renounceOwnership",
      "outputs": [],
      "stateMutability": "nonpayable",
      "type": "function"
    },
    {
      "inputs": [
        {
          "internalType": "address",
          "name": "from",
          "type": "address"
        },
        {
          "internalType": "address",
          "name": "to",
          "type": "address"
        },
        {
          "internalType": "uint256",
          "name": "tokenId",
          "type": "uint256"
        }
      ],
      "name": "safeTransferFrom",
      "outputs": [],
      "stateMutability": "nonpayable",
      "type": "function"
    },
    {
      "inputs": [
        {
          "internalType": "address",
          "name": "from",
          "type": "address"
        },
        {
          "internalType": "address",
          "name": "to",
          "type": "address"
        },
        {
          "internalType": "uint256",
          "name": "tokenId",
          "type": "uint256"
        },
        {
          "internalType": "bytes",
          "name": "_data",
          "type": "bytes"
        }
      ],
      "name": "safeTransferFrom",
      "outputs": [],
      "stateMutability": "nonpayable",
      "type": "function"
    },
    {
      "inputs": [
        {
          "internalType": "address",
          "name": "operator",
          "type": "address"
        },
        {
          "internalType": "bool",
          "name": "approved",
          "type": "bool"
        }
      ],
      "name": "setApprovalForAll",
      "outputs": [],
      "stateMutability": "nonpayable",
      "type": "function"
    },
    {
      "inputs": [
        {
          "internalType": "bytes4",
          "name": "interfaceId",
          "type": "bytes4"
        }
      ],
      "name": "supportsInterface",
      "outputs": [
        {
          "internalType": "bool",
          "name": "",
          "type": "bool"
        }
      ],
      "stateMutability": "view",
      "type": "function",
      "constant": true
    },
    {
      "inputs": [],
      "name": "symbol",
      "outputs": [
        {
          "internalType": "string",
          "name": "",
          "type": "string"
        }
      ],
      "stateMutability": "view",
      "type": "function",
      "constant": true
    },
    {
      "inputs": [
        {
          "internalType": "address",
          "name": "from",
          "type": "address"
        },
        {
          "internalType": "address",
          "name": "to",
          "type": "address"
        },
        {
          "internalType": "uint256",
          "name": "tokenId",
          "type": "uint256"
        }
      ],
      "name": "transferFrom",
      "outputs": [],
      "stateMutability": "nonpayable",
      "type": "function"
    },
    {
      "inputs": [
        {
          "internalType": "address",
          "name": "newOwner",
          "type": "address"
        }
      ],
      "name": "transferOwnership",
      "outputs": [],
      "stateMutability": "nonpayable",
      "type": "function"
    },
    {
      "inputs": [
        {
          "internalType": "bytes",
          "name": "signature",
          "type": "bytes"
        },
        {
          "internalType": "string",
          "name": "tokenUri",
          "type": "string"
        }
      ],
      "name": "check",
      "outputs": [
        {
          "internalType": "address",
          "name": "",
          "type": "address"
        }
      ],
      "stateMutability": "view",
      "type": "function",
      "constant": true
    },
    {
      "inputs": [
        {
          "internalType": "string",
          "name": "baseURI_",
          "type": "string"
        }
      ],
      "name": "setBaseURI",
      "outputs": [],
      "stateMutability": "nonpayable",
      "type": "function"
    },
    {
      "inputs": [
        {
          "internalType": "uint256",
          "name": "tokenId",
          "type": "uint256"
        }
      ],
      "name": "tokenURI",
      "outputs": [
        {
          "internalType": "string",
          "name": "",
          "type": "string"
        }
      ],
      "stateMutability": "view",
      "type": "function",
      "constant": true
    },
    {
      "inputs": [
        {
          "internalType": "address",
          "name": "buyer",
          "type": "address"
        },
        {
          "internalType": "uint256",
          "name": "price",
          "type": "uint256"
        },
        {
          "internalType": "string",
          "name": "uri",
          "type": "string"
        },
        {
          "internalType": "bytes",
          "name": "signature",
          "type": "bytes"
        }
      ],
      "name": "buyLazyToken",
      "outputs": [
        {
          "internalType": "uint256",
          "name": "",
          "type": "uint256"
        }
      ],
      "stateMutability": "payable",
      "type": "function",
      "payable": true
    },
    {
      "inputs": [
        {
          "internalType": "address",
          "name": "buyer",
          "type": "address"
        },
        {
          "internalType": "uint256",
          "name": "price",
          "type": "uint256"
        },
        {
          "internalType": "uint256",
          "name": "tokenId",
          "type": "uint256"
        }
      ],
      "name": "buyMintedToken",
      "outputs": [],
      "stateMutability": "payable",
      "type": "function",
      "payable": true
    },
    {
      "inputs": [
        {
          "internalType": "string",
          "name": "URI",
          "type": "string"
        }
      ],
      "name": "mintTokenOnBlockchain",
      "outputs": [
        {
          "internalType": "uint256",
          "name": "",
          "type": "uint256"
        }
      ],
      "stateMutability": "nonpayable",
      "type": "function"
    }
  ],
  "bytecode": "0x60806040523480156200001157600080fd5b506040518060400160405280600781526020017f4d79746f6b656e000000000000000000000000000000000000000000000000008152506040518060400160405280600381526020017f4d544b0000000000000000000000000000000000000000000000000000000000815250816000908051906020019062000096929190620001a6565b508060019080519060200190620000af929190620001a6565b505050620000d2620000c6620000d860201b60201c565b620000e060201b60201c565b620002bb565b600033905090565b6000600660009054906101000a900473ffffffffffffffffffffffffffffffffffffffff16905081600660006101000a81548173ffffffffffffffffffffffffffffffffffffffff021916908373ffffffffffffffffffffffffffffffffffffffff1602179055508173ffffffffffffffffffffffffffffffffffffffff168173ffffffffffffffffffffffffffffffffffffffff167f8be0079c531659141344cd1fd0a4f28419497f9722a3daafe3b4186f6b6457e060405160405180910390a35050565b828054620001b49062000285565b90600052602060002090601f016020900481019282620001d8576000855562000224565b82601f10620001f357805160ff191683800117855562000224565b8280016001018555821562000224579182015b828111156200022357825182559160200191906001019062000206565b5b50905062000233919062000237565b5090565b5b808211156200025257600081600090555060010162000238565b5090565b7f4e487b7100000000000000000000000000000000000000000000000000000000600052602260045260246000fd5b600060028204905060018216806200029e57607f821691505b60208210811415620002b557620002b462000256565b5b50919050565b61403c80620002cb6000396000f3fe60806040526004361061012a5760003560e01c806370a08231116100ab578063b88d4fde1161006f578063b88d4fde146103e1578063c87b56dd1461040a578063c933ff5814610447578063e40b550514610484578063e985e9c5146104b4578063f2fde38b146104f15761012a565b806370a082311461030e578063715018a61461034b5780638da5cb5b1461036257806395d89b411461038d578063a22cb465146103b85761012a565b806342842e0e116100f257806342842e0e1461022657806352867e751461024f57806355f804b31461026b57806361e2e01f146102945780636352211e146102d15761012a565b806301ffc9a71461012f57806306fdde031461016c578063081812fc14610197578063095ea7b3146101d457806323b872dd146101fd575b600080fd5b34801561013b57600080fd5b50610156600480360381019061015191906125ba565b61051a565b6040516101639190612602565b60405180910390f35b34801561017857600080fd5b506101816105fc565b60405161018e91906126b6565b60405180910390f35b3480156101a357600080fd5b506101be60048036038101906101b9919061270e565b61068e565b6040516101cb919061277c565b60405180910390f35b3480156101e057600080fd5b506101fb60048036038101906101f691906127c3565b610713565b005b34801561020957600080fd5b50610224600480360381019061021f9190612803565b61082b565b005b34801561023257600080fd5b5061024d60048036038101906102489190612803565b61088b565b005b61026960048036038101906102649190612856565b6108ab565b005b34801561027757600080fd5b50610292600480360381019061028d91906129de565b610950565b005b3480156102a057600080fd5b506102bb60048036038101906102b691906129de565b6109e6565b6040516102c89190612a36565b60405180910390f35b3480156102dd57600080fd5b506102f860048036038101906102f3919061270e565b610a0a565b604051610305919061277c565b60405180910390f35b34801561031a57600080fd5b5061033560048036038101906103309190612a51565b610abc565b6040516103429190612a36565b60405180910390f35b34801561035757600080fd5b50610360610b74565b005b34801561036e57600080fd5b50610377610bfc565b604051610384919061277c565b60405180910390f35b34801561039957600080fd5b506103a2610c26565b6040516103af91906126b6565b60405180910390f35b3480156103c457600080fd5b506103df60048036038101906103da9190612aaa565b610cb8565b005b3480156103ed57600080fd5b5061040860048036038101906104039190612b8b565b610cce565b005b34801561041657600080fd5b50610431600480360381019061042c919061270e565b610d30565b60405161043e91906126b6565b60405180910390f35b34801561045357600080fd5b5061046e60048036038101906104699190612c0e565b610ea3565b60405161047b919061277c565b60405180910390f35b61049e60048036038101906104999190612c86565b610eb7565b6040516104ab9190612a36565b60405180910390f35b3480156104c057600080fd5b506104db60048036038101906104d69190612d25565b610f81565b6040516104e89190612602565b60405180910390f35b3480156104fd57600080fd5b5061051860048036038101906105139190612a51565b611015565b005b60007f80ac58cd000000000000000000000000000000000000000000000000000000007bffffffffffffffffffffffffffffffffffffffffffffffffffffffff1916827bffffffffffffffffffffffffffffffffffffffffffffffffffffffff191614806105e557507f5b5e139f000000000000000000000000000000000000000000000000000000007bffffffffffffffffffffffffffffffffffffffffffffffffffffffff1916827bffffffffffffffffffffffffffffffffffffffffffffffffffffffff1916145b806105f557506105f48261110d565b5b9050919050565b60606000805461060b90612d94565b80601f016020809104026020016040519081016040528092919081815260200182805461063790612d94565b80156106845780601f1061065957610100808354040283529160200191610684565b820191906000526020600020905b81548152906001019060200180831161066757829003601f168201915b5050505050905090565b600061069982611177565b6106d8576040517f08c379a00000000000000000000000000000000000000000000000000000000081526004016106cf90612e38565b60405180910390fd5b6004600083815260200190815260200160002060009054906101000a900473ffffffffffffffffffffffffffffffffffffffff169050919050565b600061071e82610a0a565b90508073ffffffffffffffffffffffffffffffffffffffff168373ffffffffffffffffffffffffffffffffffffffff16141561078f576040517f08c379a000000000000000000000000000000000000000000000000000000000815260040161078690612eca565b60405180910390fd5b8073ffffffffffffffffffffffffffffffffffffffff166107ae6111e3565b73ffffffffffffffffffffffffffffffffffffffff1614806107dd57506107dc816107d76111e3565b610f81565b5b61081c576040517f08c379a000000000000000000000000000000000000000000000000000000000815260040161081390612f5c565b60405180910390fd5b61082683836111eb565b505050565b61083c6108366111e3565b826112a4565b61087b576040517f08c379a000000000000000000000000000000000000000000000000000000000815260040161087290612fee565b60405180910390fd5b610886838383611382565b505050565b6108a683838360405180602001604052806000815250610cce565b505050565b813410156108ee576040517f08c379a00000000000000000000000000000000000000000000000000000000081526004016108e59061305a565b60405180910390fd5b60008211610931576040517f08c379a0000000000000000000000000000000000000000000000000000000008152600401610928906130c6565b60405180910390fd5b600061093c82610a0a565b905061094a848285856115e9565b50505050565b6109586111e3565b73ffffffffffffffffffffffffffffffffffffffff16610976610bfc565b73ffffffffffffffffffffffffffffffffffffffff16146109cc576040517f08c379a00000000000000000000000000000000000000000000000000000000081526004016109c390613132565b60405180910390fd5b80600990805190602001906109e29291906124ab565b5050565b60006109f96109f36111e3565b83611725565b610a03600761180a565b9050919050565b6000806002600084815260200190815260200160002060009054906101000a900473ffffffffffffffffffffffffffffffffffffffff169050600073ffffffffffffffffffffffffffffffffffffffff168173ffffffffffffffffffffffffffffffffffffffff161415610ab3576040517f08c379a0000000000000000000000000000000000000000000000000000000008152600401610aaa906131c4565b60405180910390fd5b80915050919050565b60008073ffffffffffffffffffffffffffffffffffffffff168273ffffffffffffffffffffffffffffffffffffffff161415610b2d576040517f08c379a0000000000000000000000000000000000000000000000000000000008152600401610b2490613256565b60405180910390fd5b600360008373ffffffffffffffffffffffffffffffffffffffff1673ffffffffffffffffffffffffffffffffffffffff168152602001908152602001600020549050919050565b610b7c6111e3565b73ffffffffffffffffffffffffffffffffffffffff16610b9a610bfc565b73ffffffffffffffffffffffffffffffffffffffff1614610bf0576040517f08c379a0000000000000000000000000000000000000000000000000000000008152600401610be790613132565b60405180910390fd5b610bfa6000611818565b565b6000600660009054906101000a900473ffffffffffffffffffffffffffffffffffffffff16905090565b606060018054610c3590612d94565b80601f0160208091040260200160405190810160405280929190818152602001828054610c6190612d94565b8015610cae5780601f10610c8357610100808354040283529160200191610cae565b820191906000526020600020905b815481529060010190602001808311610c9157829003601f168201915b5050505050905090565b610cca610cc36111e3565b83836118de565b5050565b610cdf610cd96111e3565b836112a4565b610d1e576040517f08c379a0000000000000000000000000000000000000000000000000000000008152600401610d1590612fee565b60405180910390fd5b610d2a84848484611a4b565b50505050565b6060610d3b82611177565b610d7a576040517f08c379a0000000000000000000000000000000000000000000000000000000008152600401610d71906132e8565b60405180910390fd5b6000600860008481526020019081526020016000208054610d9a90612d94565b80601f0160208091040260200160405190810160405280929190818152602001828054610dc690612d94565b8015610e135780601f10610de857610100808354040283529160200191610e13565b820191906000526020600020905b815481529060010190602001808311610df657829003601f168201915b505050505090506000610e24611aa7565b9050600081511415610e3a578192505050610e9e565b600082511115610e6f578082604051602001610e57929190613344565b60405160208183030381529060405292505050610e9e565b80610e7985611abe565b604051602001610e8a929190613344565b604051602081830303815290604052925050505b919050565b6000610eaf8383611c1f565b905092915050565b600083341015610efc576040517f08c379a0000000000000000000000000000000000000000000000000000000008152600401610ef39061305a565b60405180910390fd5b60008411610f3f576040517f08c379a0000000000000000000000000000000000000000000000000000000008152600401610f36906130c6565b60405180910390fd5b6000610f4b8385610ea3565b9050610f578185611725565b610f6c868287610f67600761180a565b6115e9565b610f76600761180a565b915050949350505050565b6000600560008473ffffffffffffffffffffffffffffffffffffffff1673ffffffffffffffffffffffffffffffffffffffff16815260200190815260200160002060008373ffffffffffffffffffffffffffffffffffffffff1673ffffffffffffffffffffffffffffffffffffffff16815260200190815260200160002060009054906101000a900460ff16905092915050565b61101d6111e3565b73ffffffffffffffffffffffffffffffffffffffff1661103b610bfc565b73ffffffffffffffffffffffffffffffffffffffff1614611091576040517f08c379a000000000000000000000000000000000000000000000000000000000815260040161108890613132565b60405180910390fd5b600073ffffffffffffffffffffffffffffffffffffffff168173ffffffffffffffffffffffffffffffffffffffff161415611101576040517f08c379a00000000000000000000000000000000000000000000000000000000081526004016110f8906133da565b60405180910390fd5b61110a81611818565b50565b60007f01ffc9a7000000000000000000000000000000000000000000000000000000007bffffffffffffffffffffffffffffffffffffffffffffffffffffffff1916827bffffffffffffffffffffffffffffffffffffffffffffffffffffffff1916149050919050565b60008073ffffffffffffffffffffffffffffffffffffffff166002600084815260200190815260200160002060009054906101000a900473ffffffffffffffffffffffffffffffffffffffff1673ffffffffffffffffffffffffffffffffffffffff1614159050919050565b600033905090565b816004600083815260200190815260200160002060006101000a81548173ffffffffffffffffffffffffffffffffffffffff021916908373ffffffffffffffffffffffffffffffffffffffff160217905550808273ffffffffffffffffffffffffffffffffffffffff1661125e83610a0a565b73ffffffffffffffffffffffffffffffffffffffff167f8c5be1e5ebec7d5bd14f71427d1e84f3dd0314c0f7b2291e5b200ac8c7c3b92560405160405180910390a45050565b60006112af82611177565b6112ee576040517f08c379a00000000000000000000000000000000000000000000000000000000081526004016112e59061346c565b60405180910390fd5b60006112f983610a0a565b90508073ffffffffffffffffffffffffffffffffffffffff168473ffffffffffffffffffffffffffffffffffffffff16148061136857508373ffffffffffffffffffffffffffffffffffffffff166113508461068e565b73ffffffffffffffffffffffffffffffffffffffff16145b8061137957506113788185610f81565b5b91505092915050565b8273ffffffffffffffffffffffffffffffffffffffff166113a282610a0a565b73ffffffffffffffffffffffffffffffffffffffff16146113f8576040517f08c379a00000000000000000000000000000000000000000000000000000000081526004016113ef906134fe565b60405180910390fd5b600073ffffffffffffffffffffffffffffffffffffffff168273ffffffffffffffffffffffffffffffffffffffff161415611468576040517f08c379a000000000000000000000000000000000000000000000000000000000815260040161145f90613590565b60405180910390fd5b611473838383611c77565b61147e6000826111eb565b6001600360008573ffffffffffffffffffffffffffffffffffffffff1673ffffffffffffffffffffffffffffffffffffffff16815260200190815260200160002060008282546114ce91906135df565b925050819055506001600360008473ffffffffffffffffffffffffffffffffffffffff1673ffffffffffffffffffffffffffffffffffffffff16815260200190815260200160002060008282546115259190613613565b92505081905550816002600083815260200190815260200160002060006101000a81548173ffffffffffffffffffffffffffffffffffffffff021916908373ffffffffffffffffffffffffffffffffffffffff160217905550808273ffffffffffffffffffffffffffffffffffffffff168473ffffffffffffffffffffffffffffffffffffffff167fddf252ad1be2c89b69c2b068fc378daa952ba7f163c4a11628f55a4df523b3ef60405160405180910390a46115e4838383611c7c565b505050565b600073ffffffffffffffffffffffffffffffffffffffff168473ffffffffffffffffffffffffffffffffffffffff16141580156116535750600073ffffffffffffffffffffffffffffffffffffffff168373ffffffffffffffffffffffffffffffffffffffff1614155b611692576040517f08c379a0000000000000000000000000000000000000000000000000000000008152600401611689906136b5565b60405180910390fd5b61169d838583611382565b8273ffffffffffffffffffffffffffffffffffffffff166108fc839081150290604051600060405180830381858888f193505050501580156116e3573d6000803e3d6000fd5b507fd11eccd69ca22f7429e31176ed4e23b22aaff7a4414e2600201939e9f3e2d555848484604051611717939291906136d5565b60405180910390a150505050565b6000815111611769576040517f08c379a000000000000000000000000000000000000000000000000000000000815260040161176090613758565b60405180910390fd5b600073ffffffffffffffffffffffffffffffffffffffff168273ffffffffffffffffffffffffffffffffffffffff1614156117d9576040517f08c379a00000000000000000000000000000000000000000000000000000000081526004016117d0906137ea565b60405180910390fd5b6117e36007611c81565b60006117ef600761180a565b90506117fb8382611c97565b6118058183611e71565b505050565b600081600001549050919050565b6000600660009054906101000a900473ffffffffffffffffffffffffffffffffffffffff16905081600660006101000a81548173ffffffffffffffffffffffffffffffffffffffff021916908373ffffffffffffffffffffffffffffffffffffffff1602179055508173ffffffffffffffffffffffffffffffffffffffff168173ffffffffffffffffffffffffffffffffffffffff167f8be0079c531659141344cd1fd0a4f28419497f9722a3daafe3b4186f6b6457e060405160405180910390a35050565b8173ffffffffffffffffffffffffffffffffffffffff168373ffffffffffffffffffffffffffffffffffffffff16141561194d576040517f08c379a000000000000000000000000000000000000000000000000000000000815260040161194490613856565b60405180910390fd5b80600560008573ffffffffffffffffffffffffffffffffffffffff1673ffffffffffffffffffffffffffffffffffffffff16815260200190815260200160002060008473ffffffffffffffffffffffffffffffffffffffff1673ffffffffffffffffffffffffffffffffffffffff16815260200190815260200160002060006101000a81548160ff0219169083151502179055508173ffffffffffffffffffffffffffffffffffffffff168373ffffffffffffffffffffffffffffffffffffffff167f17307eab39ab6107e8899845ad3d59bd9653f200f220920489ca2b5937696c3183604051611a3e9190612602565b60405180910390a3505050565b611a56848484611382565b611a6284848484611ee5565b611aa1576040517f08c379a0000000000000000000000000000000000000000000000000000000008152600401611a98906138e8565b60405180910390fd5b50505050565b606060405180602001604052806000815250905090565b60606000821415611b06576040518060400160405280600181526020017f30000000000000000000000000000000000000000000000000000000000000008152509050611c1a565b600082905060005b60008214611b38578080611b2190613908565b915050600a82611b319190613980565b9150611b0e565b60008167ffffffffffffffff811115611b5457611b536128b3565b5b6040519080825280601f01601f191660200182016040528015611b865781602001600182028036833780820191505090505b5090505b60008514611c1357600182611b9f91906135df565b9150600a85611bae91906139b1565b6030611bba9190613613565b60f81b818381518110611bd057611bcf6139e2565b5b60200101907effffffffffffffffffffffffffffffffffffffffffffffffffffffffffffff1916908160001a905350600a85611c0c9190613980565b9450611b8a565b8093505050505b919050565b6000803083604051602001611c35929190613a59565b6040516020818303038152906040528051906020012090506000611c6a85611c5c8461206d565b61209d90919063ffffffff16565b9050809250505092915050565b505050565b505050565b6001816000016000828254019250508190555050565b600073ffffffffffffffffffffffffffffffffffffffff168273ffffffffffffffffffffffffffffffffffffffff161415611d07576040517f08c379a0000000000000000000000000000000000000000000000000000000008152600401611cfe90613acd565b60405180910390fd5b611d1081611177565b15611d50576040517f08c379a0000000000000000000000000000000000000000000000000000000008152600401611d4790613b39565b60405180910390fd5b611d5c60008383611c77565b6001600360008473ffffffffffffffffffffffffffffffffffffffff1673ffffffffffffffffffffffffffffffffffffffff1681526020019081526020016000206000828254611dac9190613613565b92505081905550816002600083815260200190815260200160002060006101000a81548173ffffffffffffffffffffffffffffffffffffffff021916908373ffffffffffffffffffffffffffffffffffffffff160217905550808273ffffffffffffffffffffffffffffffffffffffff16600073ffffffffffffffffffffffffffffffffffffffff167fddf252ad1be2c89b69c2b068fc378daa952ba7f163c4a11628f55a4df523b3ef60405160405180910390a4611e6d60008383611c7c565b5050565b611e7a82611177565b611eb9576040517f08c379a0000000000000000000000000000000000000000000000000000000008152600401611eb090613bcb565b60405180910390fd5b80600860008481526020019081526020016000209080519060200190611ee09291906124ab565b505050565b6000611f068473ffffffffffffffffffffffffffffffffffffffff166120c4565b15612060578373ffffffffffffffffffffffffffffffffffffffff1663150b7a02611f2f6111e3565b8786866040518563ffffffff1660e01b8152600401611f519493929190613c40565b6020604051808303816000875af1925050508015611f8d57506040513d601f19601f82011682018060405250810190611f8a9190613ca1565b60015b612010573d8060008114611fbd576040519150601f19603f3d011682016040523d82523d6000602084013e611fc2565b606091505b50600081511415612008576040517f08c379a0000000000000000000000000000000000000000000000000000000008152600401611fff906138e8565b60405180910390fd5b805181602001fd5b63150b7a0260e01b7bffffffffffffffffffffffffffffffffffffffffffffffffffffffff1916817bffffffffffffffffffffffffffffffffffffffffffffffffffffffff191614915050612065565b600190505b949350505050565b6000816040516020016120809190613d45565b604051602081830303815290604052805190602001209050919050565b60008060006120ac85856120e7565b915091506120b98161216a565b819250505092915050565b6000808273ffffffffffffffffffffffffffffffffffffffff163b119050919050565b6000806041835114156121295760008060006020860151925060408601519150606086015160001a905061211d8782858561233f565b94509450505050612163565b60408351141561215a57600080602085015191506040850151905061214f86838361244c565b935093505050612163565b60006002915091505b9250929050565b6000600481111561217e5761217d613d6b565b5b81600481111561219157612190613d6b565b5b141561219c5761233c565b600160048111156121b0576121af613d6b565b5b8160048111156121c3576121c2613d6b565b5b1415612204576040517f08c379a00000000000000000000000000000000000000000000000000000000081526004016121fb90613de6565b60405180910390fd5b6002600481111561221857612217613d6b565b5b81600481111561222b5761222a613d6b565b5b141561226c576040517f08c379a000000000000000000000000000000000000000000000000000000000815260040161226390613e52565b60405180910390fd5b600360048111156122805761227f613d6b565b5b81600481111561229357612292613d6b565b5b14156122d4576040517f08c379a00000000000000000000000000000000000000000000000000000000081526004016122cb90613ee4565b60405180910390fd5b6004808111156122e7576122e6613d6b565b5b8160048111156122fa576122f9613d6b565b5b141561233b576040517f08c379a000000000000000000000000000000000000000000000000000000000815260040161233290613f76565b60405180910390fd5b5b50565b6000807f7fffffffffffffffffffffffffffffff5d576e7357a4501ddfe92f46681b20a08360001c111561237a576000600391509150612443565b601b8560ff16141580156123925750601c8560ff1614155b156123a4576000600491509150612443565b6000600187878787604051600081526020016040526040516123c99493929190613fc1565b6020604051602081039080840390855afa1580156123eb573d6000803e3d6000fd5b505050602060405103519050600073ffffffffffffffffffffffffffffffffffffffff168173ffffffffffffffffffffffffffffffffffffffff16141561243a57600060019250925050612443565b80600092509250505b94509492505050565b60008060007f7fffffffffffffffffffffffffffffffffffffffffffffffffffffffffffffff60001b841690506000601b60ff8660001c901c61248f9190613613565b905061249d8782888561233f565b935093505050935093915050565b8280546124b790612d94565b90600052602060002090601f0160209004810192826124d95760008555612520565b82601f106124f257805160ff1916838001178555612520565b82800160010185558215612520579182015b8281111561251f578251825591602001919060010190612504565b5b50905061252d9190612531565b5090565b5b8082111561254a576000816000905550600101612532565b5090565b6000604051905090565b600080fd5b600080fd5b60007fffffffff0000000000000000000000000000000000000000000000000000000082169050919050565b61259781612562565b81146125a257600080fd5b50565b6000813590506125b48161258e565b92915050565b6000602082840312156125d0576125cf612558565b5b60006125de848285016125a5565b91505092915050565b60008115159050919050565b6125fc816125e7565b82525050565b600060208201905061261760008301846125f3565b92915050565b600081519050919050565b600082825260208201905092915050565b60005b8381101561265757808201518184015260208101905061263c565b83811115612666576000848401525b50505050565b6000601f19601f8301169050919050565b60006126888261261d565b6126928185612628565b93506126a2818560208601612639565b6126ab8161266c565b840191505092915050565b600060208201905081810360008301526126d0818461267d565b905092915050565b6000819050919050565b6126eb816126d8565b81146126f657600080fd5b50565b600081359050612708816126e2565b92915050565b60006020828403121561272457612723612558565b5b6000612732848285016126f9565b91505092915050565b600073ffffffffffffffffffffffffffffffffffffffff82169050919050565b60006127668261273b565b9050919050565b6127768161275b565b82525050565b6000602082019050612791600083018461276d565b92915050565b6127a08161275b565b81146127ab57600080fd5b50565b6000813590506127bd81612797565b92915050565b600080604083850312156127da576127d9612558565b5b60006127e8858286016127ae565b92505060206127f9858286016126f9565b9150509250929050565b60008060006060848603121561281c5761281b612558565b5b600061282a868287016127ae565b935050602061283b868287016127ae565b925050604061284c868287016126f9565b9150509250925092565b60008060006060848603121561286f5761286e612558565b5b600061287d868287016127ae565b935050602061288e868287016126f9565b925050604061289f868287016126f9565b9150509250925092565b600080fd5b600080fd5b7f4e487b7100000000000000000000000000000000000000000000000000000000600052604160045260246000fd5b6128eb8261266c565b810181811067ffffffffffffffff8211171561290a576129096128b3565b5b80604052505050565b600061291d61254e565b905061292982826128e2565b919050565b600067ffffffffffffffff821115612949576129486128b3565b5b6129528261266c565b9050602081019050919050565b82818337600083830152505050565b600061298161297c8461292e565b612913565b90508281526020810184848401111561299d5761299c6128ae565b5b6129a884828561295f565b509392505050565b600082601f8301126129c5576129c46128a9565b5b81356129d584826020860161296e565b91505092915050565b6000602082840312156129f4576129f3612558565b5b600082013567ffffffffffffffff811115612a1257612a1161255d565b5b612a1e848285016129b0565b91505092915050565b612a30816126d8565b82525050565b6000602082019050612a4b6000830184612a27565b92915050565b600060208284031215612a6757612a66612558565b5b6000612a75848285016127ae565b91505092915050565b612a87816125e7565b8114612a9257600080fd5b50565b600081359050612aa481612a7e565b92915050565b60008060408385031215612ac157612ac0612558565b5b6000612acf858286016127ae565b9250506020612ae085828601612a95565b9150509250929050565b600067ffffffffffffffff821115612b0557612b046128b3565b5b612b0e8261266c565b9050602081019050919050565b6000612b2e612b2984612aea565b612913565b905082815260208101848484011115612b4a57612b496128ae565b5b612b5584828561295f565b509392505050565b600082601f830112612b7257612b716128a9565b5b8135612b82848260208601612b1b565b91505092915050565b60008060008060808587031215612ba557612ba4612558565b5b6000612bb3878288016127ae565b9450506020612bc4878288016127ae565b9350506040612bd5878288016126f9565b925050606085013567ffffffffffffffff811115612bf657612bf561255d565b5b612c0287828801612b5d565b91505092959194509250565b60008060408385031215612c2557612c24612558565b5b600083013567ffffffffffffffff811115612c4357612c4261255d565b5b612c4f85828601612b5d565b925050602083013567ffffffffffffffff811115612c7057612c6f61255d565b5b612c7c858286016129b0565b9150509250929050565b60008060008060808587031215612ca057612c9f612558565b5b6000612cae878288016127ae565b9450506020612cbf878288016126f9565b935050604085013567ffffffffffffffff811115612ce057612cdf61255d565b5b612cec878288016129b0565b925050606085013567ffffffffffffffff811115612d0d57612d0c61255d565b5b612d1987828801612b5d565b91505092959194509250565b60008060408385031215612d3c57612d3b612558565b5b6000612d4a858286016127ae565b9250506020612d5b858286016127ae565b9150509250929050565b7f4e487b7100000000000000000000000000000000000000000000000000000000600052602260045260246000fd5b60006002820490506001821680612dac57607f821691505b60208210811415612dc057612dbf612d65565b5b50919050565b7f4552433732313a20617070726f76656420717565727920666f72206e6f6e657860008201527f697374656e7420746f6b656e0000000000000000000000000000000000000000602082015250565b6000612e22602c83612628565b9150612e2d82612dc6565b604082019050919050565b60006020820190508181036000830152612e5181612e15565b9050919050565b7f4552433732313a20617070726f76616c20746f2063757272656e74206f776e6560008201527f7200000000000000000000000000000000000000000000000000000000000000602082015250565b6000612eb4602183612628565b9150612ebf82612e58565b604082019050919050565b60006020820190508181036000830152612ee381612ea7565b9050919050565b7f4552433732313a20617070726f76652063616c6c6572206973206e6f74206f7760008201527f6e6572206e6f7220617070726f76656420666f7220616c6c0000000000000000602082015250565b6000612f46603883612628565b9150612f5182612eea565b604082019050919050565b60006020820190508181036000830152612f7581612f39565b9050919050565b7f4552433732313a207472616e736665722063616c6c6572206973206e6f74206f60008201527f776e6572206e6f7220617070726f766564000000000000000000000000000000602082015250565b6000612fd8603183612628565b9150612fe382612f7c565b604082019050919050565b6000602082019050818103600083015261300781612fcb565b9050919050565b7f706c65617365206769766520612070726f706572207072696365000000000000600082015250565b6000613044601a83612628565b915061304f8261300e565b602082019050919050565b6000602082019050818103600083015261307381613037565b9050919050565b7f7072696365206d757374206265203e2030000000000000000000000000000000600082015250565b60006130b0601183612628565b91506130bb8261307a565b602082019050919050565b600060208201905081810360008301526130df816130a3565b9050919050565b7f4f776e61626c653a2063616c6c6572206973206e6f7420746865206f776e6572600082015250565b600061311c602083612628565b9150613127826130e6565b602082019050919050565b6000602082019050818103600083015261314b8161310f565b9050919050565b7f4552433732313a206f776e657220717565727920666f72206e6f6e657869737460008201527f656e7420746f6b656e0000000000000000000000000000000000000000000000602082015250565b60006131ae602983612628565b91506131b982613152565b604082019050919050565b600060208201905081810360008301526131dd816131a1565b9050919050565b7f4552433732313a2062616c616e636520717565727920666f7220746865207a6560008201527f726f206164647265737300000000000000000000000000000000000000000000602082015250565b6000613240602a83612628565b915061324b826131e4565b604082019050919050565b6000602082019050818103600083015261326f81613233565b9050919050565b7f4552433732314d657461646174613a2055524920717565727920666f72206e6f60008201527f6e6578697374656e7420746f6b656e0000000000000000000000000000000000602082015250565b60006132d2602f83612628565b91506132dd82613276565b604082019050919050565b60006020820190508181036000830152613301816132c5565b9050919050565b600081905092915050565b600061331e8261261d565b6133288185613308565b9350613338818560208601612639565b80840191505092915050565b60006133508285613313565b915061335c8284613313565b91508190509392505050565b7f4f776e61626c653a206e6577206f776e657220697320746865207a65726f206160008201527f6464726573730000000000000000000000000000000000000000000000000000602082015250565b60006133c4602683612628565b91506133cf82613368565b604082019050919050565b600060208201905081810360008301526133f3816133b7565b9050919050565b7f4552433732313a206f70657261746f7220717565727920666f72206e6f6e657860008201527f697374656e7420746f6b656e0000000000000000000000000000000000000000602082015250565b6000613456602c83612628565b9150613461826133fa565b604082019050919050565b6000602082019050818103600083015261348581613449565b9050919050565b7f4552433732313a207472616e736665722066726f6d20696e636f72726563742060008201527f6f776e6572000000000000000000000000000000000000000000000000000000602082015250565b60006134e8602583612628565b91506134f38261348c565b604082019050919050565b60006020820190508181036000830152613517816134db565b9050919050565b7f4552433732313a207472616e7366657220746f20746865207a65726f2061646460008201527f7265737300000000000000000000000000000000000000000000000000000000602082015250565b600061357a602483612628565b91506135858261351e565b604082019050919050565b600060208201905081810360008301526135a98161356d565b9050919050565b7f4e487b7100000000000000000000000000000000000000000000000000000000600052601160045260246000fd5b60006135ea826126d8565b91506135f5836126d8565b925082821015613608576136076135b0565b5b828203905092915050565b600061361e826126d8565b9150613629836126d8565b9250827fffffffffffffffffffffffffffffffffffffffffffffffffffffffffffffffff0382111561365e5761365d6135b0565b5b828201905092915050565b7f796f752063616e206e6f74207472616e73666572000000000000000000000000600082015250565b600061369f601483612628565b91506136aa82613669565b602082019050919050565b600060208201905081810360008301526136ce81613692565b9050919050565b60006060820190506136ea600083018661276d565b6136f7602083018561276d565b6137046040830184612a27565b949350505050565b7f5552492063616e206e6f74206265206e756c6c00000000000000000000000000600082015250565b6000613742601383612628565b915061374d8261370c565b602082019050919050565b6000602082019050818103600083015261377181613735565b9050919050565b7f796f752063616e206e6f74206d696e74204e4654206f6e206e756c6c2061646460008201527f7265737300000000000000000000000000000000000000000000000000000000602082015250565b60006137d4602483612628565b91506137df82613778565b604082019050919050565b60006020820190508181036000830152613803816137c7565b9050919050565b7f4552433732313a20617070726f766520746f2063616c6c657200000000000000600082015250565b6000613840601983612628565b915061384b8261380a565b602082019050919050565b6000602082019050818103600083015261386f81613833565b9050919050565b7f4552433732313a207472616e7366657220746f206e6f6e20455243373231526560008201527f63656976657220696d706c656d656e7465720000000000000000000000000000602082015250565b60006138d2603283612628565b91506138dd82613876565b604082019050919050565b60006020820190508181036000830152613901816138c5565b9050919050565b6000613913826126d8565b91507fffffffffffffffffffffffffffffffffffffffffffffffffffffffffffffffff821415613946576139456135b0565b5b600182019050919050565b7f4e487b7100000000000000000000000000000000000000000000000000000000600052601260045260246000fd5b600061398b826126d8565b9150613996836126d8565b9250826139a6576139a5613951565b5b828204905092915050565b60006139bc826126d8565b91506139c7836126d8565b9250826139d7576139d6613951565b5b828206905092915050565b7f4e487b7100000000000000000000000000000000000000000000000000000000600052603260045260246000fd5b60008160601b9050919050565b6000613a2982613a11565b9050919050565b6000613a3b82613a1e565b9050919050565b613a53613a4e8261275b565b613a30565b82525050565b6000613a658285613a42565b601482019150613a758284613313565b91508190509392505050565b7f4552433732313a206d696e7420746f20746865207a65726f2061646472657373600082015250565b6000613ab7602083612628565b9150613ac282613a81565b602082019050919050565b60006020820190508181036000830152613ae681613aaa565b9050919050565b7f4552433732313a20746f6b656e20616c7265616479206d696e74656400000000600082015250565b6000613b23601c83612628565b9150613b2e82613aed565b602082019050919050565b60006020820190508181036000830152613b5281613b16565b9050919050565b7f4552433732314d657461646174613a2055524920736574206f66206e6f6e657860008201527f697374656e7420746f6b656e0000000000000000000000000000000000000000602082015250565b6000613bb5602c83612628565b9150613bc082613b59565b604082019050919050565b60006020820190508181036000830152613be481613ba8565b9050919050565b600081519050919050565b600082825260208201905092915050565b6000613c1282613beb565b613c1c8185613bf6565b9350613c2c818560208601612639565b613c358161266c565b840191505092915050565b6000608082019050613c55600083018761276d565b613c62602083018661276d565b613c6f6040830185612a27565b8181036060830152613c818184613c07565b905095945050505050565b600081519050613c9b8161258e565b92915050565b600060208284031215613cb757613cb6612558565b5b6000613cc584828501613c8c565b91505092915050565b7f19457468657265756d205369676e6564204d6573736167653a0a333200000000600082015250565b6000613d04601c83613308565b9150613d0f82613cce565b601c82019050919050565b6000819050919050565b6000819050919050565b613d3f613d3a82613d1a565b613d24565b82525050565b6000613d5082613cf7565b9150613d5c8284613d2e565b60208201915081905092915050565b7f4e487b7100000000000000000000000000000000000000000000000000000000600052602160045260246000fd5b7f45434453413a20696e76616c6964207369676e61747572650000000000000000600082015250565b6000613dd0601883612628565b9150613ddb82613d9a565b602082019050919050565b60006020820190508181036000830152613dff81613dc3565b9050919050565b7f45434453413a20696e76616c6964207369676e6174757265206c656e67746800600082015250565b6000613e3c601f83612628565b9150613e4782613e06565b602082019050919050565b60006020820190508181036000830152613e6b81613e2f565b9050919050565b7f45434453413a20696e76616c6964207369676e6174757265202773272076616c60008201527f7565000000000000000000000000000000000000000000000000000000000000602082015250565b6000613ece602283612628565b9150613ed982613e72565b604082019050919050565b60006020820190508181036000830152613efd81613ec1565b9050919050565b7f45434453413a20696e76616c6964207369676e6174757265202776272076616c60008201527f7565000000000000000000000000000000000000000000000000000000000000602082015250565b6000613f60602283612628565b9150613f6b82613f04565b604082019050919050565b60006020820190508181036000830152613f8f81613f53565b9050919050565b613f9f81613d1a565b82525050565b600060ff82169050919050565b613fbb81613fa5565b82525050565b6000608082019050613fd66000830187613f96565b613fe36020830186613fb2565b613ff06040830185613f96565b613ffd6060830184613f96565b9594505050505056fea26469706673582212204557d55a40ea78a8cd54a1326a3ac3f76742be926e86b2417a33b41de6c219b864736f6c634300080c0033",
  "immutableReferences": {},
  "source": "\npragma solidity ^0.8.2;\nimport \"@openzeppelin/contracts/token/ERC721/ERC721.sol\";\nimport \"@openzeppelin/contracts/utils/cryptography/ECDSA.sol\";\nimport \"@openzeppelin/contracts/access/Ownable.sol\";\nimport \"@openzeppelin/contracts/utils/Counters.sol\";\nimport \"@openzeppelin/contracts/utils/Context.sol\";\ncontract Mytoken is ERC721, Ownable {\n    using Strings for uint256;\n    using Counters for Counters.Counter;\n    using ECDSA for bytes32;\n    Counters.Counter private tokendIds;\n    mapping(uint256 => string) private _tokenURIs; // mapping to token URI\n\n    string private _baseURIextended;\n\n    constructor() ERC721(\"Mytoken\", \"MTK\") {}\n\n    event transferNft(address owner, address seller, uint256 tokenId);\n\n    /*\n     *  function check - it is used to check the signature of the user .\n     *  {param} signature - it the user signature  .\n     *  {param} tokenUri  - it is the IPFS hash of the token .\n\t *  returns -  singer wallate Address\n     **/\n\n    function check(\n        bytes memory signature,\n        string memory tokenUri\n    ) public view returns (address) {\n        return _getsignerAddress(signature,tokenUri);\n    }\n\n    /**\n     * function _setTokenURI - It is used to set the URI of NFT.\n     * {Param} tokenId - It is the Token Id of NFT.\n     * {param} _tokenURI - It is the IPFS URI of the NFT.\n     * */\n    function _setTokenURI(uint256 tokenId, string memory _tokenURI)\n        internal\n        virtual\n    {\n        require(\n            _exists(tokenId),\n            \"ERC721Metadata: URI set of nonexistent token\"\n        );\n        _tokenURIs[tokenId] = _tokenURI;\n    }\n\n    function setBaseURI(string memory baseURI_) external onlyOwner {\n        _baseURIextended = baseURI_;\n    }\n\n    /**\n     * {param} - tokendId - It is the Token Id of the Tokend.\n     *  returns - return the TokenURI.\n     * */\n    function tokenURI(uint256 tokenId)\n        public\n        view\n        virtual\n        override\n        returns (string memory)\n    {\n        require(\n            _exists(tokenId),\n            \"ERC721Metadata: URI query for nonexistent token\"\n        );\n\n        string memory _tokenURI = _tokenURIs[tokenId];\n\n        string memory base = _baseURI();\n\n        // If there is no base URI, return the token URI.\n        if (bytes(base).length == 0) {\n            return _tokenURI;\n        }\n        // If both are set, concatenate the baseURI and tokenURI (via abi.encodePacked).\n        if (bytes(_tokenURI).length > 0) {\n            return string(abi.encodePacked(base, _tokenURI));\n        }\n        // If there is a baseURI but no tokenURI, concatenate the tokenID to the baseURI.\n        return string(abi.encodePacked(base, tokenId.toString()));\n    }\n\n    /*\n     * function buyToken  - It the function to buy The lazy NFT.\n     * {param}  buyer -  wallate address of the buyer.\n     * {param} price - price of the NFT.\n     * {param} uri - The IPFS URL of the NFT.\n     * {param} signature -  The   keccak256 of signer.\n     *\n     * **/\n    function buyLazyToken(\n        address buyer,\n        uint256 price,\n        string memory uri,\n        bytes memory signature\n    )  public  payable  returns (uint256){\n      require(msg.value >= price,\"please give a proper price\");\n\t  require(price > 0,\"price must be > 0\");\n        address saller = check(signature, uri);\n        _mintNFt(saller,uri); \n        // transfer token to buyer.\n        _transferNft(buyer,saller,price,tokendIds.current());\n        return tokendIds.current();\n    }\n\nfunction buyMintedToken(\n       address buyer,\n       uint256 price,\n       uint256 tokenId\n\t)  public payable {\n      require(msg.value >= price,\"please give a proper price\");\n\t  require(price > 0,\"price must be > 0\");\n       address saller =  ownerOf(tokenId);\n      _transferNft(buyer,saller,price,tokenId); \n\t}\n    /**:\n     * function - this function directly mint the Token.\n     * {param} URI - IPFS URL of The Token.\n     * {param} minter - eth address of the minter.\n     */\n    function mintTokenOnBlockchain(\n        string memory URI\n         ) public returns (uint256) {\n        //mint the NFT.\n\t\t_mintNFt(_msgSender(),URI);\n        return tokendIds.current();\n    }\n\n    /* {param}  _signature - keccak256 hash.\n     * {param} _url - IPFS url of the Token.\n     * returns  - the eth address of signer.\n     */\n\n    function _getsignerAddress(\n        bytes memory _signature,\n        string memory _url\n    ) internal view returns (address) {\n        bytes32 messagehash = keccak256(\n            //in production _url is going to change with contract address\n            abi.encodePacked(address(this),_url)\n        );\n        // getting the signer eth address.\n        address signer = messagehash.toEthSignedMessageHash().recover(\n            _signature\n        );\n        return signer;\n    }\n // internal functions \n\tfunction _transferNft(address _buyer,address _saller,uint256 _price,uint256 _tokenId)internal {\n      require(_buyer!= address(0) && _saller != address(0),\"you can not transfer\") ;\n         // transfer token to buyer.\n           _transfer(_saller, _buyer, _tokenId);\n        // paying the owner of the lazy NFT.\n      payable(_saller).transfer(_price);\n      emit transferNft(_buyer, _saller, _price);\n\t}\n\n\tfunction _mintNFt(address _owner,string memory _URI)internal{\n\t require(bytes(_URI).length> 0,\"URI can not be null\");\n     require(_owner != address(0),\"you can not mint NFT on null address\") ;\n        tokendIds.increment();\n        uint256 _tokenId = tokendIds.current();\n\t\t_mint(_owner, _tokenId);\n        _setTokenURI(_tokenId, _URI);\n\n\t}\n}\n",
  "sourcePath": "/home/akhilesh/Desktop/test/contracts/Mytoken.sol",
  "compiler": {
    "name": "solc",
    "version": "0.8.12+commit.f00d7308.Emscripten.clang"
  },
  "schemaVersion": "3.4.3",
  "updatedAt": "2022-02-17T07:21:23.727Z",
  "networkType": "ethereum",
  "devdoc": {
    "kind": "dev",
    "methods": {
      "approve(address,uint256)": {
        "details": "See {IERC721-approve}."
      },
      "balanceOf(address)": {
        "details": "See {IERC721-balanceOf}."
      },
      "getApproved(uint256)": {
        "details": "See {IERC721-getApproved}."
      },
      "isApprovedForAll(address,address)": {
        "details": "See {IERC721-isApprovedForAll}."
      },
      "name()": {
        "details": "See {IERC721Metadata-name}."
      },
      "owner()": {
        "details": "Returns the address of the current owner."
      },
      "ownerOf(uint256)": {
        "details": "See {IERC721-ownerOf}."
      },
      "renounceOwnership()": {
        "details": "Leaves the contract without owner. It will not be possible to call `onlyOwner` functions anymore. Can only be called by the current owner. NOTE: Renouncing ownership will leave the contract without an owner, thereby removing any functionality that is only available to the owner."
      },
      "safeTransferFrom(address,address,uint256)": {
        "details": "See {IERC721-safeTransferFrom}."
      },
      "safeTransferFrom(address,address,uint256,bytes)": {
        "details": "See {IERC721-safeTransferFrom}."
      },
      "setApprovalForAll(address,bool)": {
        "details": "See {IERC721-setApprovalForAll}."
      },
      "supportsInterface(bytes4)": {
        "details": "See {IERC165-supportsInterface}."
      },
      "symbol()": {
        "details": "See {IERC721Metadata-symbol}."
      },
      "transferFrom(address,address,uint256)": {
        "details": "See {IERC721-transferFrom}."
      },
      "transferOwnership(address)": {
        "details": "Transfers ownership of the contract to a new account (`newOwner`). Can only be called by the current owner."
      }
    },
    "version": 1
  },
  "userdoc": {
    "kind": "user",
    "methods": {
      "mintTokenOnBlockchain(string)": {
        "notice": ": function - this function directly mint the Token. {param} URI - IPFS URL of The Token. {param} minter - eth address of the minter."
      },
      "tokenURI(uint256)": {
        "notice": "{param} - tokendId - It is the Token Id of the Tokend.  returns - return the TokenURI. "
      }
    },
    "version": 1
  }
}