{
  "contractName": "Mytoken",
  "abi": [
    {
      "inputs": [],
      "stateMutability": "nonpayable",
      "type": "constructor"
    },
    {
      "anonymous": false,
      "inputs": [
        {
          "indexed": true,
          "internalType": "address",
          "name": "owner",
          "type": "address"
        },
        {
          "indexed": true,
          "internalType": "address",
          "name": "approved",
          "type": "address"
        },
        {
          "indexed": true,
          "internalType": "uint256",
          "name": "tokenId",
          "type": "uint256"
        }
      ],
      "name": "Approval",
      "type": "event"
    },
    {
      "anonymous": false,
      "inputs": [
        {
          "indexed": true,
          "internalType": "address",
          "name": "owner",
          "type": "address"
        },
        {
          "indexed": true,
          "internalType": "address",
          "name": "operator",
          "type": "address"
        },
        {
          "indexed": false,
          "internalType": "bool",
          "name": "approved",
          "type": "bool"
        }
      ],
      "name": "ApprovalForAll",
      "type": "event"
    },
    {
      "anonymous": false,
      "inputs": [
        {
          "indexed": true,
          "internalType": "address",
          "name": "previousOwner",
          "type": "address"
        },
        {
          "indexed": true,
          "internalType": "address",
          "name": "newOwner",
          "type": "address"
        }
      ],
      "name": "OwnershipTransferred",
      "type": "event"
    },
    {
      "anonymous": false,
      "inputs": [
        {
          "indexed": true,
          "internalType": "address",
          "name": "from",
          "type": "address"
        },
        {
          "indexed": true,
          "internalType": "address",
          "name": "to",
          "type": "address"
        },
        {
          "indexed": true,
          "internalType": "uint256",
          "name": "tokenId",
          "type": "uint256"
        }
      ],
      "name": "Transfer",
      "type": "event"
    },
    {
      "anonymous": false,
      "inputs": [
        {
          "indexed": false,
          "internalType": "address",
          "name": "owner",
          "type": "address"
        },
        {
          "indexed": false,
          "internalType": "address",
          "name": "seller",
          "type": "address"
        },
        {
          "indexed": false,
          "internalType": "uint256",
          "name": "tokenId",
          "type": "uint256"
        }
      ],
      "name": "mintNft",
      "type": "event"
    },
    {
      "inputs": [
        {
          "internalType": "address",
          "name": "to",
          "type": "address"
        },
        {
          "internalType": "uint256",
          "name": "tokenId",
          "type": "uint256"
        }
      ],
      "name": "approve",
      "outputs": [],
      "stateMutability": "nonpayable",
      "type": "function"
    },
    {
      "inputs": [
        {
          "internalType": "address",
          "name": "owner",
          "type": "address"
        }
      ],
      "name": "balanceOf",
      "outputs": [
        {
          "internalType": "uint256",
          "name": "",
          "type": "uint256"
        }
      ],
      "stateMutability": "view",
      "type": "function",
      "constant": true
    },
    {
      "inputs": [
        {
          "internalType": "uint256",
          "name": "tokenId",
          "type": "uint256"
        }
      ],
      "name": "getApproved",
      "outputs": [
        {
          "internalType": "address",
          "name": "",
          "type": "address"
        }
      ],
      "stateMutability": "view",
      "type": "function",
      "constant": true
    },
    {
      "inputs": [
        {
          "internalType": "address",
          "name": "owner",
          "type": "address"
        },
        {
          "internalType": "address",
          "name": "operator",
          "type": "address"
        }
      ],
      "name": "isApprovedForAll",
      "outputs": [
        {
          "internalType": "bool",
          "name": "",
          "type": "bool"
        }
      ],
      "stateMutability": "view",
      "type": "function",
      "constant": true
    },
    {
      "inputs": [],
      "name": "name",
      "outputs": [
        {
          "internalType": "string",
          "name": "",
          "type": "string"
        }
      ],
      "stateMutability": "view",
      "type": "function",
      "constant": true
    },
    {
      "inputs": [],
      "name": "owner",
      "outputs": [
        {
          "internalType": "address",
          "name": "",
          "type": "address"
        }
      ],
      "stateMutability": "view",
      "type": "function",
      "constant": true
    },
    {
      "inputs": [
        {
          "internalType": "uint256",
          "name": "tokenId",
          "type": "uint256"
        }
      ],
      "name": "ownerOf",
      "outputs": [
        {
          "internalType": "address",
          "name": "",
          "type": "address"
        }
      ],
      "stateMutability": "view",
      "type": "function",
      "constant": true
    },
    {
      "inputs": [],
      "name": "renounceOwnership",
      "outputs": [],
      "stateMutability": "nonpayable",
      "type": "function"
    },
    {
      "inputs": [
        {
          "internalType": "address",
          "name": "from",
          "type": "address"
        },
        {
          "internalType": "address",
          "name": "to",
          "type": "address"
        },
        {
          "internalType": "uint256",
          "name": "tokenId",
          "type": "uint256"
        }
      ],
      "name": "safeTransferFrom",
      "outputs": [],
      "stateMutability": "nonpayable",
      "type": "function"
    },
    {
      "inputs": [
        {
          "internalType": "address",
          "name": "from",
          "type": "address"
        },
        {
          "internalType": "address",
          "name": "to",
          "type": "address"
        },
        {
          "internalType": "uint256",
          "name": "tokenId",
          "type": "uint256"
        },
        {
          "internalType": "bytes",
          "name": "_data",
          "type": "bytes"
        }
      ],
      "name": "safeTransferFrom",
      "outputs": [],
      "stateMutability": "nonpayable",
      "type": "function"
    },
    {
      "inputs": [
        {
          "internalType": "address",
          "name": "operator",
          "type": "address"
        },
        {
          "internalType": "bool",
          "name": "approved",
          "type": "bool"
        }
      ],
      "name": "setApprovalForAll",
      "outputs": [],
      "stateMutability": "nonpayable",
      "type": "function"
    },
    {
      "inputs": [
        {
          "internalType": "bytes4",
          "name": "interfaceId",
          "type": "bytes4"
        }
      ],
      "name": "supportsInterface",
      "outputs": [
        {
          "internalType": "bool",
          "name": "",
          "type": "bool"
        }
      ],
      "stateMutability": "view",
      "type": "function",
      "constant": true
    },
    {
      "inputs": [],
      "name": "symbol",
      "outputs": [
        {
          "internalType": "string",
          "name": "",
          "type": "string"
        }
      ],
      "stateMutability": "view",
      "type": "function",
      "constant": true
    },
    {
      "inputs": [
        {
          "internalType": "address",
          "name": "from",
          "type": "address"
        },
        {
          "internalType": "address",
          "name": "to",
          "type": "address"
        },
        {
          "internalType": "uint256",
          "name": "tokenId",
          "type": "uint256"
        }
      ],
      "name": "transferFrom",
      "outputs": [],
      "stateMutability": "nonpayable",
      "type": "function"
    },
    {
      "inputs": [
        {
          "internalType": "address",
          "name": "newOwner",
          "type": "address"
        }
      ],
      "name": "transferOwnership",
      "outputs": [],
      "stateMutability": "nonpayable",
      "type": "function"
    },
    {
      "inputs": [
        {
          "internalType": "bytes",
          "name": "signature",
          "type": "bytes"
        },
        {
          "internalType": "string",
          "name": "tokenUri",
          "type": "string"
        }
      ],
      "name": "check",
      "outputs": [
        {
          "internalType": "address",
          "name": "",
          "type": "address"
        }
      ],
      "stateMutability": "view",
      "type": "function",
      "constant": true
    },
    {
      "inputs": [
        {
          "internalType": "string",
          "name": "baseURI_",
          "type": "string"
        }
      ],
      "name": "setBaseURI",
      "outputs": [],
      "stateMutability": "nonpayable",
      "type": "function"
    },
    {
      "inputs": [
        {
          "internalType": "uint256",
          "name": "tokenId",
          "type": "uint256"
        }
      ],
      "name": "tokenURI",
      "outputs": [
        {
          "internalType": "string",
          "name": "",
          "type": "string"
        }
      ],
      "stateMutability": "view",
      "type": "function",
      "constant": true
    },
    {
      "inputs": [
        {
          "internalType": "address",
          "name": "buyer",
          "type": "address"
        },
        {
          "internalType": "uint256",
          "name": "price",
          "type": "uint256"
        },
        {
          "internalType": "string",
          "name": "uri",
          "type": "string"
        },
        {
          "internalType": "bytes",
          "name": "signature",
          "type": "bytes"
        }
      ],
      "name": "buyToken",
      "outputs": [
        {
          "internalType": "uint256",
          "name": "",
          "type": "uint256"
        }
      ],
      "stateMutability": "payable",
      "type": "function",
      "payable": true
    },
    {
      "inputs": [
        {
          "internalType": "string",
          "name": "URI",
          "type": "string"
        },
        {
          "internalType": "address",
          "name": "minter",
          "type": "address"
        }
      ],
      "name": "mintToken",
      "outputs": [
        {
          "internalType": "uint256",
          "name": "",
          "type": "uint256"
        }
      ],
      "stateMutability": "nonpayable",
      "type": "function"
    }
  ],
  "bytecode": "0x60806040523480156200001157600080fd5b506040518060400160405280600781526020017f4d79746f6b656e000000000000000000000000000000000000000000000000008152506040518060400160405280600381526020017f4d544b0000000000000000000000000000000000000000000000000000000000815250816000908051906020019062000096929190620001a6565b508060019080519060200190620000af929190620001a6565b505050620000d2620000c6620000d860201b60201c565b620000e060201b60201c565b620002bb565b600033905090565b6000600660009054906101000a900473ffffffffffffffffffffffffffffffffffffffff16905081600660006101000a81548173ffffffffffffffffffffffffffffffffffffffff021916908373ffffffffffffffffffffffffffffffffffffffff1602179055508173ffffffffffffffffffffffffffffffffffffffff168173ffffffffffffffffffffffffffffffffffffffff167f8be0079c531659141344cd1fd0a4f28419497f9722a3daafe3b4186f6b6457e060405160405180910390a35050565b828054620001b49062000285565b90600052602060002090601f016020900481019282620001d8576000855562000224565b82601f10620001f357805160ff191683800117855562000224565b8280016001018555821562000224579182015b828111156200022357825182559160200191906001019062000206565b5b50905062000233919062000237565b5090565b5b808211156200025257600081600090555060010162000238565b5090565b7f4e487b7100000000000000000000000000000000000000000000000000000000600052602260045260246000fd5b600060028204905060018216806200029e57607f821691505b60208210811415620002b557620002b462000256565b5b50919050565b613d8f80620002cb6000396000f3fe60806040526004361061011f5760003560e01c806370a08231116100a0578063b88d4fde11610064578063b88d4fde146103ea578063c87b56dd14610413578063c933ff5814610450578063e985e9c51461048d578063f2fde38b146104ca5761011f565b806370a0823114610317578063715018a6146103545780638da5cb5b1461036b57806395d89b4114610396578063a22cb465146103c15761011f565b806323b872dd116100e757806323b872dd1461022257806342842e0e1461024b5780634ae550cd1461027457806355f804b3146102b15780636352211e146102da5761011f565b806301ffc9a71461012457806306fdde0314610161578063081812fc1461018c578063095ea7b3146101c9578063176d6b12146101f2575b600080fd5b34801561013057600080fd5b5061014b60048036038101906101469190612448565b6104f3565b6040516101589190612490565b60405180910390f35b34801561016d57600080fd5b506101766105d5565b6040516101839190612544565b60405180910390f35b34801561019857600080fd5b506101b360048036038101906101ae919061259c565b610667565b6040516101c0919061260a565b60405180910390f35b3480156101d557600080fd5b506101f060048036038101906101eb9190612651565b6106ec565b005b61020c60048036038101906102079190612867565b610804565b6040516102199190612915565b60405180910390f35b34801561022e57600080fd5b5061024960048036038101906102449190612930565b6109c6565b005b34801561025757600080fd5b50610272600480360381019061026d9190612930565b610a26565b005b34801561028057600080fd5b5061029b60048036038101906102969190612983565b610a46565b6040516102a89190612915565b60405180910390f35b3480156102bd57600080fd5b506102d860048036038101906102d391906129df565b610aed565b005b3480156102e657600080fd5b5061030160048036038101906102fc919061259c565b610b83565b60405161030e919061260a565b60405180910390f35b34801561032357600080fd5b5061033e60048036038101906103399190612a28565b610c35565b60405161034b9190612915565b60405180910390f35b34801561036057600080fd5b50610369610ced565b005b34801561037757600080fd5b50610380610d75565b60405161038d919061260a565b60405180910390f35b3480156103a257600080fd5b506103ab610d9f565b6040516103b89190612544565b60405180910390f35b3480156103cd57600080fd5b506103e860048036038101906103e39190612a81565b610e31565b005b3480156103f657600080fd5b50610411600480360381019061040c9190612ac1565b610e47565b005b34801561041f57600080fd5b5061043a6004803603810190610435919061259c565b610ea9565b6040516104479190612544565b60405180910390f35b34801561045c57600080fd5b5061047760048036038101906104729190612b44565b61101c565b604051610484919061260a565b60405180910390f35b34801561049957600080fd5b506104b460048036038101906104af9190612bbc565b611030565b6040516104c19190612490565b60405180910390f35b3480156104d657600080fd5b506104f160048036038101906104ec9190612a28565b6110c4565b005b60007f80ac58cd000000000000000000000000000000000000000000000000000000007bffffffffffffffffffffffffffffffffffffffffffffffffffffffff1916827bffffffffffffffffffffffffffffffffffffffffffffffffffffffff191614806105be57507f5b5e139f000000000000000000000000000000000000000000000000000000007bffffffffffffffffffffffffffffffffffffffffffffffffffffffff1916827bffffffffffffffffffffffffffffffffffffffffffffffffffffffff1916145b806105ce57506105cd826111bc565b5b9050919050565b6060600080546105e490612c2b565b80601f016020809104026020016040519081016040528092919081815260200182805461061090612c2b565b801561065d5780601f106106325761010080835404028352916020019161065d565b820191906000526020600020905b81548152906001019060200180831161064057829003601f168201915b5050505050905090565b600061067282611226565b6106b1576040517f08c379a00000000000000000000000000000000000000000000000000000000081526004016106a890612ccf565b60405180910390fd5b6004600083815260200190815260200160002060009054906101000a900473ffffffffffffffffffffffffffffffffffffffff169050919050565b60006106f782610b83565b90508073ffffffffffffffffffffffffffffffffffffffff168373ffffffffffffffffffffffffffffffffffffffff161415610768576040517f08c379a000000000000000000000000000000000000000000000000000000000815260040161075f90612d61565b60405180910390fd5b8073ffffffffffffffffffffffffffffffffffffffff16610787611292565b73ffffffffffffffffffffffffffffffffffffffff1614806107b657506107b5816107b0611292565b611030565b5b6107f5576040517f08c379a00000000000000000000000000000000000000000000000000000000081526004016107ec90612df3565b60405180910390fd5b6107ff838361129a565b505050565b600083341015610849576040517f08c379a000000000000000000000000000000000000000000000000000000000815260040161084090612e5f565b60405180910390fd5b6000610855838561101c565b9050600073ffffffffffffffffffffffffffffffffffffffff168673ffffffffffffffffffffffffffffffffffffffff16141580156108c15750600073ffffffffffffffffffffffffffffffffffffffff168173ffffffffffffffffffffffffffffffffffffffff1614155b610900576040517f08c379a00000000000000000000000000000000000000000000000000000000081526004016108f790612ef1565b60405180910390fd5b61090a6007611353565b60006109166007611369565b90506109228282611377565b61092c8186611551565b6109378288836115c5565b8173ffffffffffffffffffffffffffffffffffffffff166108fc879081150290604051600060405180830381858888f1935050505015801561097d573d6000803e3d6000fd5b507fbe51751b7da252e6a0c199ce108f6ca2a82a02a490bc6023c2d691f8b211ad688783886040516109b193929190612f11565b60405180910390a18092505050949350505050565b6109d76109d1611292565b8261182c565b610a16576040517f08c379a0000000000000000000000000000000000000000000000000000000008152600401610a0d90612fba565b60405180910390fd5b610a218383836115c5565b505050565b610a4183838360405180602001604052806000815250610e47565b505050565b60008073ffffffffffffffffffffffffffffffffffffffff168273ffffffffffffffffffffffffffffffffffffffff161415610ab7576040517f08c379a0000000000000000000000000000000000000000000000000000000008152600401610aae90612ef1565b60405180910390fd5b610ac16007611353565b6000610acd6007611369565b9050610ad98382611377565b610ae38185611551565b8091505092915050565b610af5611292565b73ffffffffffffffffffffffffffffffffffffffff16610b13610d75565b73ffffffffffffffffffffffffffffffffffffffff1614610b69576040517f08c379a0000000000000000000000000000000000000000000000000000000008152600401610b6090613026565b60405180910390fd5b8060099080519060200190610b7f929190612339565b5050565b6000806002600084815260200190815260200160002060009054906101000a900473ffffffffffffffffffffffffffffffffffffffff169050600073ffffffffffffffffffffffffffffffffffffffff168173ffffffffffffffffffffffffffffffffffffffff161415610c2c576040517f08c379a0000000000000000000000000000000000000000000000000000000008152600401610c23906130b8565b60405180910390fd5b80915050919050565b60008073ffffffffffffffffffffffffffffffffffffffff168273ffffffffffffffffffffffffffffffffffffffff161415610ca6576040517f08c379a0000000000000000000000000000000000000000000000000000000008152600401610c9d9061314a565b60405180910390fd5b600360008373ffffffffffffffffffffffffffffffffffffffff1673ffffffffffffffffffffffffffffffffffffffff168152602001908152602001600020549050919050565b610cf5611292565b73ffffffffffffffffffffffffffffffffffffffff16610d13610d75565b73ffffffffffffffffffffffffffffffffffffffff1614610d69576040517f08c379a0000000000000000000000000000000000000000000000000000000008152600401610d6090613026565b60405180910390fd5b610d73600061190a565b565b6000600660009054906101000a900473ffffffffffffffffffffffffffffffffffffffff16905090565b606060018054610dae90612c2b565b80601f0160208091040260200160405190810160405280929190818152602001828054610dda90612c2b565b8015610e275780601f10610dfc57610100808354040283529160200191610e27565b820191906000526020600020905b815481529060010190602001808311610e0a57829003601f168201915b5050505050905090565b610e43610e3c611292565b83836119d0565b5050565b610e58610e52611292565b8361182c565b610e97576040517f08c379a0000000000000000000000000000000000000000000000000000000008152600401610e8e90612fba565b60405180910390fd5b610ea384848484611b3d565b50505050565b6060610eb482611226565b610ef3576040517f08c379a0000000000000000000000000000000000000000000000000000000008152600401610eea906131dc565b60405180910390fd5b6000600860008481526020019081526020016000208054610f1390612c2b565b80601f0160208091040260200160405190810160405280929190818152602001828054610f3f90612c2b565b8015610f8c5780601f10610f6157610100808354040283529160200191610f8c565b820191906000526020600020905b815481529060010190602001808311610f6f57829003601f168201915b505050505090506000610f9d611b99565b9050600081511415610fb3578192505050611017565b600082511115610fe8578082604051602001610fd0929190613238565b60405160208183030381529060405292505050611017565b80610ff285611bb0565b604051602001611003929190613238565b604051602081830303815290604052925050505b919050565b60006110288383611d11565b905092915050565b6000600560008473ffffffffffffffffffffffffffffffffffffffff1673ffffffffffffffffffffffffffffffffffffffff16815260200190815260200160002060008373ffffffffffffffffffffffffffffffffffffffff1673ffffffffffffffffffffffffffffffffffffffff16815260200190815260200160002060009054906101000a900460ff16905092915050565b6110cc611292565b73ffffffffffffffffffffffffffffffffffffffff166110ea610d75565b73ffffffffffffffffffffffffffffffffffffffff1614611140576040517f08c379a000000000000000000000000000000000000000000000000000000000815260040161113790613026565b60405180910390fd5b600073ffffffffffffffffffffffffffffffffffffffff168173ffffffffffffffffffffffffffffffffffffffff1614156111b0576040517f08c379a00000000000000000000000000000000000000000000000000000000081526004016111a7906132ce565b60405180910390fd5b6111b98161190a565b50565b60007f01ffc9a7000000000000000000000000000000000000000000000000000000007bffffffffffffffffffffffffffffffffffffffffffffffffffffffff1916827bffffffffffffffffffffffffffffffffffffffffffffffffffffffff1916149050919050565b60008073ffffffffffffffffffffffffffffffffffffffff166002600084815260200190815260200160002060009054906101000a900473ffffffffffffffffffffffffffffffffffffffff1673ffffffffffffffffffffffffffffffffffffffff1614159050919050565b600033905090565b816004600083815260200190815260200160002060006101000a81548173ffffffffffffffffffffffffffffffffffffffff021916908373ffffffffffffffffffffffffffffffffffffffff160217905550808273ffffffffffffffffffffffffffffffffffffffff1661130d83610b83565b73ffffffffffffffffffffffffffffffffffffffff167f8c5be1e5ebec7d5bd14f71427d1e84f3dd0314c0f7b2291e5b200ac8c7c3b92560405160405180910390a45050565b6001816000016000828254019250508190555050565b600081600001549050919050565b600073ffffffffffffffffffffffffffffffffffffffff168273ffffffffffffffffffffffffffffffffffffffff1614156113e7576040517f08c379a00000000000000000000000000000000000000000000000000000000081526004016113de9061333a565b60405180910390fd5b6113f081611226565b15611430576040517f08c379a0000000000000000000000000000000000000000000000000000000008152600401611427906133a6565b60405180910390fd5b61143c60008383611d69565b6001600360008473ffffffffffffffffffffffffffffffffffffffff1673ffffffffffffffffffffffffffffffffffffffff168152602001908152602001600020600082825461148c91906133f5565b92505081905550816002600083815260200190815260200160002060006101000a81548173ffffffffffffffffffffffffffffffffffffffff021916908373ffffffffffffffffffffffffffffffffffffffff160217905550808273ffffffffffffffffffffffffffffffffffffffff16600073ffffffffffffffffffffffffffffffffffffffff167fddf252ad1be2c89b69c2b068fc378daa952ba7f163c4a11628f55a4df523b3ef60405160405180910390a461154d60008383611d6e565b5050565b61155a82611226565b611599576040517f08c379a0000000000000000000000000000000000000000000000000000000008152600401611590906134bd565b60405180910390fd5b806008600084815260200190815260200160002090805190602001906115c0929190612339565b505050565b8273ffffffffffffffffffffffffffffffffffffffff166115e582610b83565b73ffffffffffffffffffffffffffffffffffffffff161461163b576040517f08c379a00000000000000000000000000000000000000000000000000000000081526004016116329061354f565b60405180910390fd5b600073ffffffffffffffffffffffffffffffffffffffff168273ffffffffffffffffffffffffffffffffffffffff1614156116ab576040517f08c379a00000000000000000000000000000000000000000000000000000000081526004016116a2906135e1565b60405180910390fd5b6116b6838383611d69565b6116c160008261129a565b6001600360008573ffffffffffffffffffffffffffffffffffffffff1673ffffffffffffffffffffffffffffffffffffffff16815260200190815260200160002060008282546117119190613601565b925050819055506001600360008473ffffffffffffffffffffffffffffffffffffffff1673ffffffffffffffffffffffffffffffffffffffff168152602001908152602001600020600082825461176891906133f5565b92505081905550816002600083815260200190815260200160002060006101000a81548173ffffffffffffffffffffffffffffffffffffffff021916908373ffffffffffffffffffffffffffffffffffffffff160217905550808273ffffffffffffffffffffffffffffffffffffffff168473ffffffffffffffffffffffffffffffffffffffff167fddf252ad1be2c89b69c2b068fc378daa952ba7f163c4a11628f55a4df523b3ef60405160405180910390a4611827838383611d6e565b505050565b600061183782611226565b611876576040517f08c379a000000000000000000000000000000000000000000000000000000000815260040161186d906136a7565b60405180910390fd5b600061188183610b83565b90508073ffffffffffffffffffffffffffffffffffffffff168473ffffffffffffffffffffffffffffffffffffffff1614806118f057508373ffffffffffffffffffffffffffffffffffffffff166118d884610667565b73ffffffffffffffffffffffffffffffffffffffff16145b8061190157506119008185611030565b5b91505092915050565b6000600660009054906101000a900473ffffffffffffffffffffffffffffffffffffffff16905081600660006101000a81548173ffffffffffffffffffffffffffffffffffffffff021916908373ffffffffffffffffffffffffffffffffffffffff1602179055508173ffffffffffffffffffffffffffffffffffffffff168173ffffffffffffffffffffffffffffffffffffffff167f8be0079c531659141344cd1fd0a4f28419497f9722a3daafe3b4186f6b6457e060405160405180910390a35050565b8173ffffffffffffffffffffffffffffffffffffffff168373ffffffffffffffffffffffffffffffffffffffff161415611a3f576040517f08c379a0000000000000000000000000000000000000000000000000000000008152600401611a3690613713565b60405180910390fd5b80600560008573ffffffffffffffffffffffffffffffffffffffff1673ffffffffffffffffffffffffffffffffffffffff16815260200190815260200160002060008473ffffffffffffffffffffffffffffffffffffffff1673ffffffffffffffffffffffffffffffffffffffff16815260200190815260200160002060006101000a81548160ff0219169083151502179055508173ffffffffffffffffffffffffffffffffffffffff168373ffffffffffffffffffffffffffffffffffffffff167f17307eab39ab6107e8899845ad3d59bd9653f200f220920489ca2b5937696c3183604051611b309190612490565b60405180910390a3505050565b611b488484846115c5565b611b5484848484611d73565b611b93576040517f08c379a0000000000000000000000000000000000000000000000000000000008152600401611b8a906137a5565b60405180910390fd5b50505050565b606060405180602001604052806000815250905090565b60606000821415611bf8576040518060400160405280600181526020017f30000000000000000000000000000000000000000000000000000000000000008152509050611d0c565b600082905060005b60008214611c2a578080611c13906137c5565b915050600a82611c23919061383d565b9150611c00565b60008167ffffffffffffffff811115611c4657611c4561269b565b5b6040519080825280601f01601f191660200182016040528015611c785781602001600182028036833780820191505090505b5090505b60008514611d0557600182611c919190613601565b9150600a85611ca0919061386e565b6030611cac91906133f5565b60f81b818381518110611cc257611cc161389f565b5b60200101907effffffffffffffffffffffffffffffffffffffffffffffffffffffffffffff1916908160001a905350600a85611cfe919061383d565b9450611c7c565b8093505050505b919050565b6000803083604051602001611d27929190613916565b6040516020818303038152906040528051906020012090506000611d5c85611d4e84611efb565b611f2b90919063ffffffff16565b9050809250505092915050565b505050565b505050565b6000611d948473ffffffffffffffffffffffffffffffffffffffff16611f52565b15611eee578373ffffffffffffffffffffffffffffffffffffffff1663150b7a02611dbd611292565b8786866040518563ffffffff1660e01b8152600401611ddf9493929190613993565b6020604051808303816000875af1925050508015611e1b57506040513d601f19601f82011682018060405250810190611e1891906139f4565b60015b611e9e573d8060008114611e4b576040519150601f19603f3d011682016040523d82523d6000602084013e611e50565b606091505b50600081511415611e96576040517f08c379a0000000000000000000000000000000000000000000000000000000008152600401611e8d906137a5565b60405180910390fd5b805181602001fd5b63150b7a0260e01b7bffffffffffffffffffffffffffffffffffffffffffffffffffffffff1916817bffffffffffffffffffffffffffffffffffffffffffffffffffffffff191614915050611ef3565b600190505b949350505050565b600081604051602001611f0e9190613a98565b604051602081830303815290604052805190602001209050919050565b6000806000611f3a8585611f75565b91509150611f4781611ff8565b819250505092915050565b6000808273ffffffffffffffffffffffffffffffffffffffff163b119050919050565b600080604183511415611fb75760008060006020860151925060408601519150606086015160001a9050611fab878285856121cd565b94509450505050611ff1565b604083511415611fe8576000806020850151915060408501519050611fdd8683836122da565b935093505050611ff1565b60006002915091505b9250929050565b6000600481111561200c5761200b613abe565b5b81600481111561201f5761201e613abe565b5b141561202a576121ca565b6001600481111561203e5761203d613abe565b5b81600481111561205157612050613abe565b5b1415612092576040517f08c379a000000000000000000000000000000000000000000000000000000000815260040161208990613b39565b60405180910390fd5b600260048111156120a6576120a5613abe565b5b8160048111156120b9576120b8613abe565b5b14156120fa576040517f08c379a00000000000000000000000000000000000000000000000000000000081526004016120f190613ba5565b60405180910390fd5b6003600481111561210e5761210d613abe565b5b81600481111561212157612120613abe565b5b1415612162576040517f08c379a000000000000000000000000000000000000000000000000000000000815260040161215990613c37565b60405180910390fd5b60048081111561217557612174613abe565b5b81600481111561218857612187613abe565b5b14156121c9576040517f08c379a00000000000000000000000000000000000000000000000000000000081526004016121c090613cc9565b60405180910390fd5b5b50565b6000807f7fffffffffffffffffffffffffffffff5d576e7357a4501ddfe92f46681b20a08360001c11156122085760006003915091506122d1565b601b8560ff16141580156122205750601c8560ff1614155b156122325760006004915091506122d1565b6000600187878787604051600081526020016040526040516122579493929190613d14565b6020604051602081039080840390855afa158015612279573d6000803e3d6000fd5b505050602060405103519050600073ffffffffffffffffffffffffffffffffffffffff168173ffffffffffffffffffffffffffffffffffffffff1614156122c8576000600192509250506122d1565b80600092509250505b94509492505050565b60008060007f7fffffffffffffffffffffffffffffffffffffffffffffffffffffffffffffff60001b841690506000601b60ff8660001c901c61231d91906133f5565b905061232b878288856121cd565b935093505050935093915050565b82805461234590612c2b565b90600052602060002090601f01602090048101928261236757600085556123ae565b82601f1061238057805160ff19168380011785556123ae565b828001600101855582156123ae579182015b828111156123ad578251825591602001919060010190612392565b5b5090506123bb91906123bf565b5090565b5b808211156123d85760008160009055506001016123c0565b5090565b6000604051905090565b600080fd5b600080fd5b60007fffffffff0000000000000000000000000000000000000000000000000000000082169050919050565b612425816123f0565b811461243057600080fd5b50565b6000813590506124428161241c565b92915050565b60006020828403121561245e5761245d6123e6565b5b600061246c84828501612433565b91505092915050565b60008115159050919050565b61248a81612475565b82525050565b60006020820190506124a56000830184612481565b92915050565b600081519050919050565b600082825260208201905092915050565b60005b838110156124e55780820151818401526020810190506124ca565b838111156124f4576000848401525b50505050565b6000601f19601f8301169050919050565b6000612516826124ab565b61252081856124b6565b93506125308185602086016124c7565b612539816124fa565b840191505092915050565b6000602082019050818103600083015261255e818461250b565b905092915050565b6000819050919050565b61257981612566565b811461258457600080fd5b50565b60008135905061259681612570565b92915050565b6000602082840312156125b2576125b16123e6565b5b60006125c084828501612587565b91505092915050565b600073ffffffffffffffffffffffffffffffffffffffff82169050919050565b60006125f4826125c9565b9050919050565b612604816125e9565b82525050565b600060208201905061261f60008301846125fb565b92915050565b61262e816125e9565b811461263957600080fd5b50565b60008135905061264b81612625565b92915050565b60008060408385031215612668576126676123e6565b5b60006126768582860161263c565b925050602061268785828601612587565b9150509250929050565b600080fd5b600080fd5b7f4e487b7100000000000000000000000000000000000000000000000000000000600052604160045260246000fd5b6126d3826124fa565b810181811067ffffffffffffffff821117156126f2576126f161269b565b5b80604052505050565b60006127056123dc565b905061271182826126ca565b919050565b600067ffffffffffffffff8211156127315761273061269b565b5b61273a826124fa565b9050602081019050919050565b82818337600083830152505050565b600061276961276484612716565b6126fb565b90508281526020810184848401111561278557612784612696565b5b612790848285612747565b509392505050565b600082601f8301126127ad576127ac612691565b5b81356127bd848260208601612756565b91505092915050565b600067ffffffffffffffff8211156127e1576127e061269b565b5b6127ea826124fa565b9050602081019050919050565b600061280a612805846127c6565b6126fb565b90508281526020810184848401111561282657612825612696565b5b612831848285612747565b509392505050565b600082601f83011261284e5761284d612691565b5b813561285e8482602086016127f7565b91505092915050565b60008060008060808587031215612881576128806123e6565b5b600061288f8782880161263c565b94505060206128a087828801612587565b935050604085013567ffffffffffffffff8111156128c1576128c06123eb565b5b6128cd87828801612798565b925050606085013567ffffffffffffffff8111156128ee576128ed6123eb565b5b6128fa87828801612839565b91505092959194509250565b61290f81612566565b82525050565b600060208201905061292a6000830184612906565b92915050565b600080600060608486031215612949576129486123e6565b5b60006129578682870161263c565b93505060206129688682870161263c565b925050604061297986828701612587565b9150509250925092565b6000806040838503121561299a576129996123e6565b5b600083013567ffffffffffffffff8111156129b8576129b76123eb565b5b6129c485828601612798565b92505060206129d58582860161263c565b9150509250929050565b6000602082840312156129f5576129f46123e6565b5b600082013567ffffffffffffffff811115612a1357612a126123eb565b5b612a1f84828501612798565b91505092915050565b600060208284031215612a3e57612a3d6123e6565b5b6000612a4c8482850161263c565b91505092915050565b612a5e81612475565b8114612a6957600080fd5b50565b600081359050612a7b81612a55565b92915050565b60008060408385031215612a9857612a976123e6565b5b6000612aa68582860161263c565b9250506020612ab785828601612a6c565b9150509250929050565b60008060008060808587031215612adb57612ada6123e6565b5b6000612ae98782880161263c565b9450506020612afa8782880161263c565b9350506040612b0b87828801612587565b925050606085013567ffffffffffffffff811115612b2c57612b2b6123eb565b5b612b3887828801612839565b91505092959194509250565b60008060408385031215612b5b57612b5a6123e6565b5b600083013567ffffffffffffffff811115612b7957612b786123eb565b5b612b8585828601612839565b925050602083013567ffffffffffffffff811115612ba657612ba56123eb565b5b612bb285828601612798565b9150509250929050565b60008060408385031215612bd357612bd26123e6565b5b6000612be18582860161263c565b9250506020612bf28582860161263c565b9150509250929050565b7f4e487b7100000000000000000000000000000000000000000000000000000000600052602260045260246000fd5b60006002820490506001821680612c4357607f821691505b60208210811415612c5757612c56612bfc565b5b50919050565b7f4552433732313a20617070726f76656420717565727920666f72206e6f6e657860008201527f697374656e7420746f6b656e0000000000000000000000000000000000000000602082015250565b6000612cb9602c836124b6565b9150612cc482612c5d565b604082019050919050565b60006020820190508181036000830152612ce881612cac565b9050919050565b7f4552433732313a20617070726f76616c20746f2063757272656e74206f776e6560008201527f7200000000000000000000000000000000000000000000000000000000000000602082015250565b6000612d4b6021836124b6565b9150612d5682612cef565b604082019050919050565b60006020820190508181036000830152612d7a81612d3e565b9050919050565b7f4552433732313a20617070726f76652063616c6c6572206973206e6f74206f7760008201527f6e6572206e6f7220617070726f76656420666f7220616c6c0000000000000000602082015250565b6000612ddd6038836124b6565b9150612de882612d81565b604082019050919050565b60006020820190508181036000830152612e0c81612dd0565b9050919050565b7f496e73756666696369656e742066756e647320746f2072656465656d00000000600082015250565b6000612e49601c836124b6565b9150612e5482612e13565b602082019050919050565b60006020820190508181036000830152612e7881612e3c565b9050919050565b7f796f752063616e206e6f74206d696e7420666f72206e756c6c2061646472657360008201527f7300000000000000000000000000000000000000000000000000000000000000602082015250565b6000612edb6021836124b6565b9150612ee682612e7f565b604082019050919050565b60006020820190508181036000830152612f0a81612ece565b9050919050565b6000606082019050612f2660008301866125fb565b612f3360208301856125fb565b612f406040830184612906565b949350505050565b7f4552433732313a207472616e736665722063616c6c6572206973206e6f74206f60008201527f776e6572206e6f7220617070726f766564000000000000000000000000000000602082015250565b6000612fa46031836124b6565b9150612faf82612f48565b604082019050919050565b60006020820190508181036000830152612fd381612f97565b9050919050565b7f4f776e61626c653a2063616c6c6572206973206e6f7420746865206f776e6572600082015250565b60006130106020836124b6565b915061301b82612fda565b602082019050919050565b6000602082019050818103600083015261303f81613003565b9050919050565b7f4552433732313a206f776e657220717565727920666f72206e6f6e657869737460008201527f656e7420746f6b656e0000000000000000000000000000000000000000000000602082015250565b60006130a26029836124b6565b91506130ad82613046565b604082019050919050565b600060208201905081810360008301526130d181613095565b9050919050565b7f4552433732313a2062616c616e636520717565727920666f7220746865207a6560008201527f726f206164647265737300000000000000000000000000000000000000000000602082015250565b6000613134602a836124b6565b915061313f826130d8565b604082019050919050565b6000602082019050818103600083015261316381613127565b9050919050565b7f4552433732314d657461646174613a2055524920717565727920666f72206e6f60008201527f6e6578697374656e7420746f6b656e0000000000000000000000000000000000602082015250565b60006131c6602f836124b6565b91506131d18261316a565b604082019050919050565b600060208201905081810360008301526131f5816131b9565b9050919050565b600081905092915050565b6000613212826124ab565b61321c81856131fc565b935061322c8185602086016124c7565b80840191505092915050565b60006132448285613207565b91506132508284613207565b91508190509392505050565b7f4f776e61626c653a206e6577206f776e657220697320746865207a65726f206160008201527f6464726573730000000000000000000000000000000000000000000000000000602082015250565b60006132b86026836124b6565b91506132c38261325c565b604082019050919050565b600060208201905081810360008301526132e7816132ab565b9050919050565b7f4552433732313a206d696e7420746f20746865207a65726f2061646472657373600082015250565b60006133246020836124b6565b915061332f826132ee565b602082019050919050565b6000602082019050818103600083015261335381613317565b9050919050565b7f4552433732313a20746f6b656e20616c7265616479206d696e74656400000000600082015250565b6000613390601c836124b6565b915061339b8261335a565b602082019050919050565b600060208201905081810360008301526133bf81613383565b9050919050565b7f4e487b7100000000000000000000000000000000000000000000000000000000600052601160045260246000fd5b600061340082612566565b915061340b83612566565b9250827fffffffffffffffffffffffffffffffffffffffffffffffffffffffffffffffff038211156134405761343f6133c6565b5b828201905092915050565b7f4552433732314d657461646174613a2055524920736574206f66206e6f6e657860008201527f697374656e7420746f6b656e0000000000000000000000000000000000000000602082015250565b60006134a7602c836124b6565b91506134b28261344b565b604082019050919050565b600060208201905081810360008301526134d68161349a565b9050919050565b7f4552433732313a207472616e736665722066726f6d20696e636f72726563742060008201527f6f776e6572000000000000000000000000000000000000000000000000000000602082015250565b60006135396025836124b6565b9150613544826134dd565b604082019050919050565b600060208201905081810360008301526135688161352c565b9050919050565b7f4552433732313a207472616e7366657220746f20746865207a65726f2061646460008201527f7265737300000000000000000000000000000000000000000000000000000000602082015250565b60006135cb6024836124b6565b91506135d68261356f565b604082019050919050565b600060208201905081810360008301526135fa816135be565b9050919050565b600061360c82612566565b915061361783612566565b92508282101561362a576136296133c6565b5b828203905092915050565b7f4552433732313a206f70657261746f7220717565727920666f72206e6f6e657860008201527f697374656e7420746f6b656e0000000000000000000000000000000000000000602082015250565b6000613691602c836124b6565b915061369c82613635565b604082019050919050565b600060208201905081810360008301526136c081613684565b9050919050565b7f4552433732313a20617070726f766520746f2063616c6c657200000000000000600082015250565b60006136fd6019836124b6565b9150613708826136c7565b602082019050919050565b6000602082019050818103600083015261372c816136f0565b9050919050565b7f4552433732313a207472616e7366657220746f206e6f6e20455243373231526560008201527f63656976657220696d706c656d656e7465720000000000000000000000000000602082015250565b600061378f6032836124b6565b915061379a82613733565b604082019050919050565b600060208201905081810360008301526137be81613782565b9050919050565b60006137d082612566565b91507fffffffffffffffffffffffffffffffffffffffffffffffffffffffffffffffff821415613803576138026133c6565b5b600182019050919050565b7f4e487b7100000000000000000000000000000000000000000000000000000000600052601260045260246000fd5b600061384882612566565b915061385383612566565b9250826138635761386261380e565b5b828204905092915050565b600061387982612566565b915061388483612566565b9250826138945761389361380e565b5b828206905092915050565b7f4e487b7100000000000000000000000000000000000000000000000000000000600052603260045260246000fd5b60008160601b9050919050565b60006138e6826138ce565b9050919050565b60006138f8826138db565b9050919050565b61391061390b826125e9565b6138ed565b82525050565b600061392282856138ff565b6014820191506139328284613207565b91508190509392505050565b600081519050919050565b600082825260208201905092915050565b60006139658261393e565b61396f8185613949565b935061397f8185602086016124c7565b613988816124fa565b840191505092915050565b60006080820190506139a860008301876125fb565b6139b560208301866125fb565b6139c26040830185612906565b81810360608301526139d4818461395a565b905095945050505050565b6000815190506139ee8161241c565b92915050565b600060208284031215613a0a57613a096123e6565b5b6000613a18848285016139df565b91505092915050565b7f19457468657265756d205369676e6564204d6573736167653a0a333200000000600082015250565b6000613a57601c836131fc565b9150613a6282613a21565b601c82019050919050565b6000819050919050565b6000819050919050565b613a92613a8d82613a6d565b613a77565b82525050565b6000613aa382613a4a565b9150613aaf8284613a81565b60208201915081905092915050565b7f4e487b7100000000000000000000000000000000000000000000000000000000600052602160045260246000fd5b7f45434453413a20696e76616c6964207369676e61747572650000000000000000600082015250565b6000613b236018836124b6565b9150613b2e82613aed565b602082019050919050565b60006020820190508181036000830152613b5281613b16565b9050919050565b7f45434453413a20696e76616c6964207369676e6174757265206c656e67746800600082015250565b6000613b8f601f836124b6565b9150613b9a82613b59565b602082019050919050565b60006020820190508181036000830152613bbe81613b82565b9050919050565b7f45434453413a20696e76616c6964207369676e6174757265202773272076616c60008201527f7565000000000000000000000000000000000000000000000000000000000000602082015250565b6000613c216022836124b6565b9150613c2c82613bc5565b604082019050919050565b60006020820190508181036000830152613c5081613c14565b9050919050565b7f45434453413a20696e76616c6964207369676e6174757265202776272076616c60008201527f7565000000000000000000000000000000000000000000000000000000000000602082015250565b6000613cb36022836124b6565b9150613cbe82613c57565b604082019050919050565b60006020820190508181036000830152613ce281613ca6565b9050919050565b613cf281613a6d565b82525050565b600060ff82169050919050565b613d0e81613cf8565b82525050565b6000608082019050613d296000830187613ce9565b613d366020830186613d05565b613d436040830185613ce9565b613d506060830184613ce9565b9594505050505056fea26469706673582212205527ff714af9257c42fe60eb13a68ace0ecce4bbf7f025337913c36a0edf093664736f6c634300080b0033",
  "immutableReferences": {},
  "source": "pragma solidity ^0.8.2;\nimport \"@openzeppelin/contracts/token/ERC721/ERC721.sol\";\nimport \"@openzeppelin/contracts/utils/cryptography/ECDSA.sol\";\nimport \"@openzeppelin/contracts/access/Ownable.sol\";\nimport \"@openzeppelin/contracts/utils/Counters.sol\";\ncontract Mytoken is ERC721, Ownable {\n    using Strings for uint256;\n    using Counters for Counters.Counter;\n    using ECDSA for bytes32;\n    Counters.Counter private tokendIds;\n    mapping(uint256 => string) private _tokenURIs; // mapping to token URI\n\n    string private _baseURIextended;\n\n    constructor() ERC721(\"Mytoken\", \"MTK\") {}\n\n    event mintNft(address owner, address seller, uint256 tokenId);\n\n    /**\n     *\n     * function check - it is used to check the signature of the user .\n     * {param} signature - it the user signature  .\n     *  {param} tokenUri  - it is the IPFS hash of the token .\n     * returns -  singer wallate Address\n     *\n     */\n\n    function check(\n        bytes memory signature,\n        string memory tokenUri\n    ) public view returns (address) {\n        return _getsignerAddress(signature,tokenUri);\n    }\n\n    /***\n     * function _setTokenURI - It is used to set the URI of NFT.\n     * {Param} tokenId - It is the Token Id of NFT.\n     * {param} _tokenURI - It is the IPFS URI of the NFT.\n     * */\n    function _setTokenURI(uint256 tokenId, string memory _tokenURI)\n        internal\n        virtual\n    {\n        require(\n            _exists(tokenId),\n            \"ERC721Metadata: URI set of nonexistent token\"\n        );\n        _tokenURIs[tokenId] = _tokenURI;\n    }\n\n    function setBaseURI(string memory baseURI_) external onlyOwner {\n        _baseURIextended = baseURI_;\n    }\n\n    /**\n     * {param} - tokendId - It is the Token Id of the Tokend.\n     *  returns - return the TokenURI.\n     * */\n    function tokenURI(uint256 tokenId)\n        public\n        view\n        virtual\n        override\n        returns (string memory)\n    {\n        require(\n            _exists(tokenId),\n            \"ERC721Metadata: URI query for nonexistent token\"\n        );\n\n        string memory _tokenURI = _tokenURIs[tokenId];\n\n        string memory base = _baseURI();\n\n        // If there is no base URI, return the token URI.\n        if (bytes(base).length == 0) {\n            return _tokenURI;\n        }\n        // If both are set, concatenate the baseURI and tokenURI (via abi.encodePacked).\n        if (bytes(_tokenURI).length > 0) {\n            return string(abi.encodePacked(base, _tokenURI));\n        }\n        // If there is a baseURI but no tokenURI, concatenate the tokenID to the baseURI.\n        return string(abi.encodePacked(base, tokenId.toString()));\n    }\n\n    /**\n     *\n     * function buyToken  - It the function to buy The lazy NFT.\n     * {param}  buyer -  wallate address of the buyer.\n     * {param} price - price of the NFT.\n     * {param} uri - The IPFS URL of the NFT.\n     * {param} signature -  The   keccak256 of signer.\n     *\n     * **/\n    function buyToken(\n        address buyer,\n        uint256 price,\n        string memory uri,\n        bytes memory signature\n    )  public  payable returns (uint256) {\n        //the value must be greate then or eqaul to the price\n        require(msg.value >= price, \"Insufficient funds to redeem\");\n        // address must not be null\n        address saller = check(signature, uri);\n        require(\n            (buyer != address(0) && saller != address(0)),\n            \"you can not mint for null address\"\n        );\n        tokendIds.increment();\n        uint256 tokenId = tokendIds.current();\n        // first assign the token to the signer, to establish provenance on-chain.\n        _mint(saller, tokenId);\n        //set the token URI.\n        _setTokenURI(tokenId, uri);\n        // transfer token to buyer.\n        _transfer(saller, buyer, tokenId);\n        // paying the owner of the lazy NFT.\n        payable(saller).transfer(price);\n        emit mintNft(buyer, saller, price);\n\n        return tokenId;\n    }\n\n    /**\n     * function - this function directly mint the Token.\n     * {param} URI - IPFS URL of The Token.\n     * {param} minter - eth address of the minter.\n     */\n    function mintToken(\n        string memory URI,\n        address minter\n    ) public returns (uint256) {\n        require(minter != address(0), \"you can not mint for null address\");\n        tokendIds.increment();\n        uint256 tokenId = tokendIds.current();\n        //mint the NFT.\n        _mint(minter, tokenId);\n        //set the token URI.\n        _setTokenURI(tokenId, URI);\n        return tokenId;\n    }\n\n    /**\n     * {param}  _signature - keccak256 hash.\n     * {param} _url - IPFS url of the Token.\n     * returns  - the eth address of signer.\n     *\n     * **/\n\n    function _getsignerAddress(\n        bytes memory _signature,\n        string memory _url\n    ) internal view returns (address) {\n        bytes32 messagehash = keccak256(\n            //in production _url is going to change with contract address\n            abi.encodePacked(address(this),_url)\n        );\n        // getting the signer eth address.\n        address signer = messagehash.toEthSignedMessageHash().recover(\n            _signature\n        );\n\n        return signer;\n    }\n}\n",
  "sourcePath": "/home/akhilesh/Desktop/test/contracts/Mytoken.sol",
  "compiler": {
    "name": "solc",
    "version": "0.8.11+commit.d7f03943.Emscripten.clang"
  },
  "schemaVersion": "3.4.3",
  "updatedAt": "2022-02-16T09:32:13.436Z",
  "networkType": "ethereum",
  "devdoc": {
    "kind": "dev",
    "methods": {
      "approve(address,uint256)": {
        "details": "See {IERC721-approve}."
      },
      "balanceOf(address)": {
        "details": "See {IERC721-balanceOf}."
      },
      "getApproved(uint256)": {
        "details": "See {IERC721-getApproved}."
      },
      "isApprovedForAll(address,address)": {
        "details": "See {IERC721-isApprovedForAll}."
      },
      "name()": {
        "details": "See {IERC721Metadata-name}."
      },
      "owner()": {
        "details": "Returns the address of the current owner."
      },
      "ownerOf(uint256)": {
        "details": "See {IERC721-ownerOf}."
      },
      "renounceOwnership()": {
        "details": "Leaves the contract without owner. It will not be possible to call `onlyOwner` functions anymore. Can only be called by the current owner. NOTE: Renouncing ownership will leave the contract without an owner, thereby removing any functionality that is only available to the owner."
      },
      "safeTransferFrom(address,address,uint256)": {
        "details": "See {IERC721-safeTransferFrom}."
      },
      "safeTransferFrom(address,address,uint256,bytes)": {
        "details": "See {IERC721-safeTransferFrom}."
      },
      "setApprovalForAll(address,bool)": {
        "details": "See {IERC721-setApprovalForAll}."
      },
      "supportsInterface(bytes4)": {
        "details": "See {IERC165-supportsInterface}."
      },
      "symbol()": {
        "details": "See {IERC721Metadata-symbol}."
      },
      "transferFrom(address,address,uint256)": {
        "details": "See {IERC721-transferFrom}."
      },
      "transferOwnership(address)": {
        "details": "Transfers ownership of the contract to a new account (`newOwner`). Can only be called by the current owner."
      }
    },
    "version": 1
  },
  "userdoc": {
    "kind": "user",
    "methods": {
      "buyToken(address,uint256,string,bytes)": {
        "notice": "function buyToken  - It the function to buy The lazy NFT. {param}  buyer -  wallate address of the buyer. {param} price - price of the NFT. {param} uri - The IPFS URL of the NFT. {param} signature -  The   keccak256 of signer. *"
      },
      "check(bytes,string)": {
        "notice": "function check - it is used to check the signature of the user . {param} signature - it the user signature  .  {param} tokenUri  - it is the IPFS hash of the token . returns -  singer wallate Address"
      },
      "mintToken(string,address)": {
        "notice": "function - this function directly mint the Token. {param} URI - IPFS URL of The Token. {param} minter - eth address of the minter."
      },
      "tokenURI(uint256)": {
        "notice": "{param} - tokendId - It is the Token Id of the Tokend.  returns - return the TokenURI. "
      }
    },
    "version": 1
  }
}